:100000000C9469000C9491000C9491000C94910054
:100010000C9491000C9491000C9491000C9491001C
:100020000C9491000C9491000C9491000C9491000C
:100030000C9491000C9491000C9491000C949100FC
:100040000C9402080C9491000C9472080C944C08C7
:100050000C9491000C9491000C9491000C949100DC
:100060000C94A4080C949100AF0B9E0BAC0BB40B3A
:10007000BD0BCB0BCE0B0000000023002600290097
:100080000000000800020100000304070000000057
:100090000000000000000000250028002B000000E8
:1000A0000000240027002A000404040404040404BB
:1000B0000202020202020303030303030102040813
:1000C00010204080010204081020010204081020C2
:1000D000F00911241FBECFEFD8E0DEBFCDBF11E085
:1000E000A0E0B1E0ECEAFCE102C005900D92A03482
:1000F000B107D9F723E0A0E4B1E001C01D92AA3214
:10010000B207E1F710E0C9E6D0E004C02197FE0194
:100110000E94490EC836D107C9F70E94B30A0C9451
:10012000540E0C940000682F8CEA91E00C946A073E
:10013000809186018111FCCF81E0809386018093BC
:1001400085019FEF909384011092830110928201A8
:1001500080938101809181018A61809381018091E6
:100160008001813061F4109280018091810180933F
:10017000BB008091BC0083FDF8CF85EC01C085EE0B
:100180008093BC00809186018130E1F380918301EE
:10019000811103C08091830101C081E0A0E6B1E03C
:1001A00027E831E0F9019E2F921B981718F49D91D2
:1001B0009193F9CF1092AB018093AA0108950E9408
:1001C00098009091AA018091AB01981749F08CEAB0
:1001D00091E00E941E0790935E0280935D02F1CF32
:1001E0006AE070E080E090E00C94C807CF93DF9362
:1001F00090E0FC01E454FF4F2491FC01E855FF4FCF
:1002000084918823C1F090E0880F991FFC01E25689
:10021000FF4FC591D491FC01EC56FF4FA591B491CD
:100220009FB7F8948881E22FE0958E2388838C9184
:10023000E823EC939FBFDF91CF910895009769F079
:10024000FC0101900020E9F73197AF01481B590BE1
:10025000BC0188EB91E00C94D60580E090E0089515
:100260008F929F92AF92BF920F931F93CF93DF9382
:10027000CDB7DEB7A1970FB6F894DEBF0FBECDBFE6
:1002800019A2423008F44AE08E010F5D1F4F842E00
:10029000912CA12CB12CA50194010E94080EE62FEF
:1002A000B901CA0101501109EA3014F4E05D01C03E
:1002B000E95CD801EC93232B242B252B61F7C80193
:1002C0000E941E01A1960FB6F894DEBF0FBECDBFEF
:1002D000DF91CF911F910F91BF90AF909F908F9022
:1002E0000895CF92DF92EF92FF92CF93DF936C014C
:1002F000990FEE08FF08F7FE1AC0E091B801F091DF
:10030000B9010190F081E02D6DE288EB91E0099553
:10031000EC0166277727CB016C197D098E099F09AF
:100320004AE00E9430017C01EC0EFD1E06C04AE04E
:10033000C701B6010E9430017C018CE291E00E946D
:100340001E018E0D9F1DDF91CF91FF90EF90DF90EA
:10035000CF90089591E09093A7018093D0021092DE
:10036000A9011092A80108952091A8019091D002AE
:10037000213208F04AC0809186018111FCCF32E021
:100380003093860131E0309385013FEF3093840153
:100390001092830120938201A0E4B1E040E651E095
:1003A000FA013E2F341B321718F43D913193F9CFE7
:1003B0001092810120918101990F922B90938101DC
:1003C00090918001913061F41092800190918101AF
:1003D0009093BB009091BC0093FDF8CF95EC01C0C9
:1003E00095EE9093BC00909186019230E1F390914C
:1003F00084019F3F79F080918401803241F08091A7
:100400008401803331F084E005C081E003C082E0E4
:1004100001C083E01092A9011092A8011092A701D7
:100420000895CF93DF931F92CDB7DEB7682F8DE08D
:1004300069830E94AA0180EB90E00E949300698189
:100440008CEA91E00E946A070F90DF91CF910C94A3
:10045000B401CF93DF931F92CDB7DEB7682F8DE045
:1004600069830E94AA0180E890E00E94930069815C
:100470008CEA91E00E946A070F90DF91CF910C9473
:10048000B4012F923F924F925F926F927F928F9220
:100490009F92AF92BF92CF92DF92EF92FF920F9313
:1004A0001F93CF93DF9300D0CDB7DEB78FE80E94C4
:1004B00011020E94DF0080915D0290915E028270C5
:1004C0009927909372028093710264E0862E912C9A
:1004D000A12CB12C8091710290917202029709F0C7
:1004E00037C1109256021092550280915502909198
:1004F00056028430910574F7880F991FFC01E15A68
:10050000FD4F80810E9411026AE070E080E090E07F
:100510000E94C8070E9498009091AA018091AB01A7
:100520000091550210915602981769F08CEA91E0FB
:100530000E941E079801220F331F29593D4FF901D0
:1005400091838083E9CF0330110509F0F7C080E380
:100550000E94290230906702212C609169027091FB
:100560006A02622973297093840260938302F09176
:100570006B02FA83198200916D0210916E0229813B
:100580003A81022B132B1093860200938502072ECB
:10059000000C880B990B0E94A00C2B013C01B801A8
:1005A000110F880B990B0E94A00C6B017C01A30119
:1005B0009201C301B2010E942C0D2B013C01A70145
:1005C0009601C701B6010E942C0D9B01AC01C3012D
:1005D000B2010E94FC0B0E94680C6093870270932A
:1005E00088028093890290938A02E0905702F090EB
:1005F00058020E94A00C0E949F0D8701000F111F3E
:1006000005571D4F0E946F0CF801718360838701AD
:100610000F5F1F4F109358020093570203301105CC
:1006200009F08CC08FE80E9411020E94DF008091C7
:100630005D0290915E02847099279093700280937E
:100640006F02049709F07AC02091590230915A0242
:10065000F901EE0FFF1FEE0FFF1FEF56FD4F409108
:100660008D0250918E0280918B0290918C02840FAA
:10067000951F40918F0250919002840F951FB801F1
:100680000E94F40DCB01A0E0B0E080839183A283AF
:10069000B38310927202109271021092580210925B
:1006A00057022430310509F040C040919502509125
:1006B00096026091970270919802809199029091B0
:1006C0009A02A0919B02B0919C02480F591F6A1F89
:1006D0007B1F80919D0290919E02A0919F02B091FC
:1006E000A002480F591F6A1F7B1F8091A1029091A1
:1006F000A202A091A302B091A4028A019B01080F5B
:10070000191F2A1F3B1FC901B801A50194010E94AE
:100710002A0E2093A5023093A6024093A70250937D
:10072000A80210925A021092590280915902909197
:100730005A02019690935A02809359028091550271
:100740009091560201969093560280935502CDCE19
:100750000F900F90DF91CF911F910F91FF90EF902D
:10076000DF90CF90BF90AF909F908F907F906F90D1
:100770005F904F903F902F900895CF93DF93282F55
:1007800030E0F901E058FF4F8491F901E454FF4F44
:10079000D491F901E855FF4FC491CC2391F0811118
:1007A0000E949F07EC2FF0E0EE0FFF1FEA58FF4F6B
:1007B000A591B491EC91ED2381E090E021F480E0EB
:1007C00002C080E090E0DF91CF9108951F93CF9316
:1007D000DF93282F30E0F901E058FF4F8491F901B1
:1007E000E454FF4FD491F901E855FF4FC491CC2355
:1007F000C9F0162F81110E949F07EC2FF0E0EE0F39
:10080000FF1FEC56FF4FA591B4918FB7F8941111CB
:1008100005C09C91ED2FE095E92302C0EC91ED2BF2
:10082000EC938FBFDF91CF911F910895CF92DF920C
:10083000EF92FF920F931F93CF93DF93DBE714E1C7
:100840000EE28CE5F82E9FE8E92EC2E080915B0273
:1008500090915C028A3091050CF0F7C09C01297FD1
:10086000232B19F0089709F0AFC0D0937B021093A7
:100870007C0200937D028DE00E94AA0182E890E054
:100880000E94930060917D028CEA91E00E946A07C9
:100890000E94B4018DE00E94AA0183E890E00E94CA
:1008A000930060917C028CEA91E00E946A070E94AA
:1008B000B4018DE00E94AA0184E890E00E949300B8
:1008C00060917B028CEA91E00E946A070E94B40169
:1008D000F0927E02E0927F02C09380028DE00E943F
:1008E000AA0185E890E00E949300609180028CEA62
:1008F00091E00E946A070E94B4018DE00E94AA0163
:1009000086E890E00E94930060917F028CEA91E07B
:100910000E946A070E94B4018DE00E94AA0187E844
:1009200090E00E94930060917E028CEA91E00E9428
:100930006A070E94B401C0938102109282028DE086
:100940000E94AA0188E890E00E94930060918202D0
:100950008CEA91E00E946A070E94B4018DE00E9437
:10096000AA0189E890E00E949300609181028CEADC
:1009700091E00E946A070E94B4018DE00E94AA01E2
:100980008BE890E00E9493006091AB028CEA91E0CA
:100990000E946A070E94B40180EB0E94290281E054
:1009A0000E94290280E10E94290280E20E9429021D
:1009B0006AE070E080E090E00E94C8076EE070E0BE
:1009C00080E090E00E94C80780915B0290915C02F9
:1009D0000197A1F461E086E00E94E6030E944102D3
:1009E0008DE00E94AA0181E890E00E94930061E0FE
:1009F0008CEA91E00E946A070E94B40180915B0238
:100A000090915C029C012B7F2330310511F00597FA
:100A100031F460E086E00E94E6030E94410280918A
:100A20005B0290915C02099731F460E086E00E94DD
:100A3000E6030E94410280915B0290915C02019664
:100A400090935C0280935B0201CF6091A50270914C
:100A5000A6028091A7029091A8020E94A00C6B01AF
:100A60007C012091BA023091BB024091BC025091AE
:100A7000BD020E942C0D20E038E849E256E40E94B5
:100A8000FC0B0E94680C6093AE027093AF028093DF
:100A9000B0029093B1026E3121E072078105910599
:100AA0008CF42091BE023091BF024091C00250915F
:100AB000C102C701B6010E942C0D20E03CEF4DEBB6
:100AC00056E432C08B019C010F51114021093109BC
:100AD000043C11052105310588F42091C2023091B2
:100AE000C3024091C4025091C502C701B6010E94E1
:100AF0002C0D20E030EA47E556E416C06B3E22E0BC
:100B0000720781059105A4F02091C6023091C702B9
:100B10004091C8025091C902C701B6010E942C0D34
:100B200020E038E646EC55E40E94FC0B0E94680C7D
:100B30006093B2027093B3028093B4029093B502B3
:100B40006091B2027091B3028091B4029091B502AB
:100B5000DF91CF911F910F91FF90EF90DF90CF9099
:100B600008953FB7F8948091260390912703A091B0
:100B70002803B091290326B5A89B05C02F3F19F083
:100B80000196A11DB11D3FBFBA2FA92F982F88270D
:100B9000820F911DA11DB11DBC01CD0142E0660F68
:100BA000771F881F991F4A95D1F70895CF92DF923A
:100BB000EF92FF920F931F93CF93DF936C017A0113
:100BC0008B01C0E0D0E0CE15DF0589F0D8016D9132
:100BD0008D01D601ED91FC910190F081E02DC601CF
:100BE0000995892B11F47E0102C02196ECCFC70133
:100BF000DF91CF911F910F91FF90EF90DF90CF90F9
:100C00000895FC01538D448D252F30E0842F90E012
:100C1000821B930B541710F0CF96089501970895F7
:100C2000FC01918D828D981761F0828DDF01A80FF4
:100C3000B11D5D968C91928D9F5F9F73928F90E016
:100C400008958FEF9FEF0895FC01918D828D981785
:100C500031F0828DE80FF11D858D90E008958FEFC2
:100C60009FEF0895FC01918D228D892F90E0805C8B
:100C70009F4F821B91098F739927089588EB91E00C
:100C80000E94320621E0892B09F420E0822F08958A
:100C9000FC01848DDF01A80FB11DA35ABF4F2C9119
:100CA000848D90E001968F739927848FA689B789E8
:100CB0002C93A089B1898C9180648C93938D848DC1
:100CC000981306C00288F389E02D80818F7D808390
:100CD0000895EF92FF920F931F93CF93DF93EC0150
:100CE00081E0888F9B8D8C8D981305C0E889F989E8
:100CF000808185FD24C0F62E0B8D10E00F5F1F4F05
:100D00000F731127E02E8C8DE8120CC00FB607FC74
:100D1000FACFE889F989808185FFF5CFCE010E945D
:100D20004806F1CF8B8DFE01E80FF11DE35AFF4F0E
:100D3000F0820B8FEA89FB898081806207C0EE898F
:100D4000FF896083E889F98980818064808381E0FC
:100D500090E0DF91CF911F910F91FF90EF90089558
:100D6000CF93DF93EC01888D8823C9F0EA89FB8952
:100D7000808185FD05C0A889B9898C9186FD0FC049
:100D80000FB607FCF5CF808185FFF2CFA889B9891E
:100D90008C9185FFEDCFCE010E944806E7CFDF9111
:100DA000CF91089580E090E0892B29F00E943E06C3
:100DB00081110C940000089585ED8093BC00809112
:100DC000BC0084FDFCCF1092860108954091F3028F
:100DD000262F30E0240F311D21323105DCF4209123
:100DE00086012430C9F4FC0180E090E0861758F4B5
:100DF0003091F3022191DC01AF52BD4FA30FB11D21
:100E00002C930196F3CF8091F302680F6093F30265
:100E100080E0089581E0089582E008950895E091CA
:100E2000AB018091AA01E81730F4F0E0E957FE4FDA
:100E3000808190E008958FEF9FEF08959091AB012E
:100E40008091AA01981750F4E92FF0E0E957FE4F7E
:100E5000208130E09F5F9093AB0102C02FEF3FEF06
:100E6000C90108958091AA0190E02091AB01821BF5
:100E700091090895CF92DF92EF92FF920F931F9303
:100E8000CF93DF937C01262F972F8A018091A701B2
:100E9000882391F0C62FD72F6E01C40ED51ECC1516
:100EA000DD0571F06991D701ED91FC910190F08120
:100EB000E02DC7010995F3CF642F822F0E94E6062B
:100EC000C801DF91CF911F910F91FF90EF90DF90BC
:100ED000CF900895CF93DF931F92CDB7DEB769838C
:100EE0002091A7012223D1F02091A801203240F0C7
:100EF00021E030E0FC013383228380E090E015C0E4
:100F00008091A901E82FF0E0E05CFE4F9981908389
:100F10008F5F8093A9018093A80105C061E0CE0195
:100F200001960E94E60681E090E00F90DF91CF915C
:100F30000895089580E090E008950E944F0E833058
:100F400081F028F4813099F08230A1F00895873043
:100F5000A9F08830B9F08430D1F4809180008F7D81
:100F600003C0809180008F7780938000089584B5BE
:100F70008F7702C084B58F7D84BD08958091B000C5
:100F80008F7703C08091B0008F7D8093B00008956B
:100F90008F929F92AF92BF92CF92DF92EF92FF9289
:100FA0006B017C010E94B1054B015C01C114D104AD
:100FB000E104F104F1F00E94B105DC01CB018819D4
:100FC0009909AA09BB09883E9340A105B10570F3B0
:100FD00021E0C21AD108E108F10888EE880E83E00A
:100FE000981EA11CB11CC114D104E104F10419F72D
:100FF000DDCFFF90EF90DF90CF90BF90AF909F90AC
:101000008F9008951F920F920FB60F9211242F9375
:101010003F938F939F93AF93BF93809122039091BF
:101020002303A0912403B09125033091210323E0F1
:10103000230F2D3720F40196A11DB11D05C026E810
:10104000230F0296A11DB11D20932103809322033B
:1010500090932303A0932403B09325038091260348
:1010600090912703A0912803B09129030196A11D17
:10107000B11D8093260390932703A0932803B09378
:101080002903BF91AF919F918F913F912F910F9025
:101090000FBE0F901F9018951F920F920FB60F92D0
:1010A00011242F933F934F935F936F937F938F936D
:1010B0009F93AF93BF93EF93FF9388EB91E00E94D0
:1010C0004806FF91EF91BF91AF919F918F917F91D2
:1010D0006F915F914F913F912F910F900FBE0F90A5
:1010E0001F9018951F920F920FB60F9211242F93F5
:1010F0008F939F93EF93FF93E091C801F091C90103
:101100008081E091CE01F091CF0182FD12C09081EB
:101110008091D1018F5F8F732091D201821751F09E
:10112000E091D101F0E0E854FE4F958F8093D1011A
:1011300001C08081FF91EF919F918F912F910F902E
:101140000FBE0F901F9018951F920F920FB60F921F
:1011500011242F933F934F935F936F937F938F93BC
:101160009F93AF93BF93EF93FF938091B900887FD4
:10117000803609F49CC068F5883209F45BC090F4AD
:10118000803109F454C038F4882309F4F6C088305B
:1011900009F44DC0F6C0883109F44CC0803209F41E
:1011A0005DC0EFC0803409F468C048F4803309F4AE
:1011B00055C0883309F0E5C080938401D8C08035DC
:1011C00009F44FC0883509F45DC0883409F0D9C0EE
:1011D000D6C0883909F4C7C0A8F4883709F467C0B5
:1011E00038F4883609F463C0803709F460C0C9C098
:1011F000883809F4B8C0803909F45FC0803809F034
:10120000C0C05BC0803B09F486C038F4803A09F462
:1012100066C0883A09F47FC0B4C0803C09F4A7C016
:10122000883C09F4A4C0883B09F48AC0AAC0809114
:10123000810110C09091830180918201981770F50F
:10124000E091830181E08E0F80938301F0E0E05A0A
:10125000FE4F80818093BB0085EC86C08093840123
:101260008EC0E091830181E08E0F80938301809195
:10127000BB00F0E0E05AFE4F8083909183018091A3
:1012800082016EC0E091830181E08E0F8093830123
:101290008091BB00F0E0E05AFE4F80838091850191
:1012A00081116DC081E08093800184EA61C083E098
:1012B0008093860110921703CFCF8091170380325D
:1012C00008F051C0E091170381E08E0F809317035F
:1012D0008091BB00F0E0E950FD4F8083BDCF85ECED
:1012E0008093BC001092860180911703803230F405
:1012F000E0911703F0E0E950FD4F10826091170371
:1013000070E0E091F502F091F60287EF92E0099526
:101310001092170336C084E0809386011092F40285
:101320001092F302E091F102F091F202099580919E
:10133000F302811105C081E08093F3021092D10283
:10134000E091F40281E08E0F8093F402F0E0EF521E
:10135000FD4F80818093BB009091F4028091F30255
:10136000981708F479CF85E88093BC000AC085EC13
:101370008093BC001092860104C0109284010E94E8
:10138000DC06FF91EF91BF91AF919F918F917F917B
:101390006F915F914F913F912F910F900FBE0F90E2
:1013A0001F9018951092860181E08093850110921C
:1013B000800161E082E10E94E60361E083E10E9436
:1013C000E603E9EBF0E080818E7F808380818D7F72
:1013D000808388E48093B80085E48093BC000895FE
:1013E000CF93DF93C8EBD1E01B821A8288EE93E0A3
:1013F000A0E0B0E08C839D83AE83BF832CE031E01E
:101400003983288325EC30E03D872C8724EC30E0BD
:101410003F872E8720EC30E0398B288B41EC50E061
:101420005B8B4A8B42EC50E05D8B4C8B46EC50E082
:101430005F8B4E8B198E1A8E1B8E1C8EECEAF1E0A0
:101440001382128284839583A683B7838EE191E011
:101450009183808385E592E0FC01138212821582DC
:10146000148248E0E0E0F1E0AFE5B2E001900D92D7
:101470004A95E1F74BE754E16EE270E0FC01468FDC
:10148000578F60A371A34CE55FE862E070E042A370
:1014900053A364A375A384E18093AB0286ED91E02E
:1014A0009093AD028093AC028DED94E2A6E0BFEB89
:1014B0008093BA029093BB02A093BC02B093BD028A
:1014C00080E59CEFA8E9BFEB8093BE029093BF023A
:1014D000A093C002B093C10283EC93EDABE2BFEBEB
:1014E0008093C2029093C302A093C402B093C5023A
:1014F00088E195E9A4E9BEEB8093C6029093C70208
:10150000A093C802B093C90282E0F9018083EC8500
:10151000FD851082EE85FF858FEC8083188EEC8927
:10152000FD8986E08083EA89FB89808180618083F0
:10153000EA89FB89808188608083EA89FB898081D0
:1015400080688083EA89FB8980818F7D8083109207
:10155000AB011092AA011092A9011092A801DF918B
:10156000CF910C94D209789484B5826084BD84B5FF
:10157000816084BD85B5826085BD85B5816085BD8E
:1015800080916E00816080936E0010928100809146
:1015900081008260809381008091810081608093CE
:1015A0008100809180008160809380008091B100F3
:1015B00084608093B1008091B00081608093B0001E
:1015C00080917A00846080937A0080917A008260B2
:1015D00080937A0080917A00816080937A00809174
:1015E0007A00806880937A001092C1001092AB015B
:1015F0001092AA011092A9011092A8010E94D2098A
:1016000088E00E94F60089E00E94F60084E00E94D3
:10161000F60083E00E94F6005524539486E0E82EFD
:10162000F12C95E0C92ED12C24E0A22EB12CC1E0E2
:10163000D0E002E010E033E0832E912C10925C02A7
:1016400010925B020E9416048091B2029091B30244
:10165000A091B402B091B5028093B6029093B70204
:10166000A093B802B093B9023C010E94710120EE30
:10167000621621E072061CF450921D0302C0109203
:101680001D038FE291E00E941E018CE291E00E9416
:101690001E0180911D0390E00E94710110925C0276
:1016A00010925B020E9416048091B2029091B302E4
:1016B000A091B402B091B5028093B6029093B702A4
:1016C000A093B802B093B902843C99401CF45092A4
:1016D0001A0302C010921A0388E00E94BD03662418
:1016E0006394892B09F4612C60921C0389E00E94A9
:1016F000BD0377247394892B09F4712C70921B031A
:1017000084E00E94BD0344244394892B09F4412CB6
:101710004092190383E00E94BD0321E0892B09F464
:1017200020E020931803E0911F03F0912003E7309D
:10173000F105B0F5EC5CFF4F0C94490E80911D0350
:10174000882329F09092200380921F032DC06110FE
:101750004DC071104BC028C07524671428F5D09374
:101760002003C0931F0320C080911A038823E1F057
:10177000B0922003A0921F0317C0662029F0D092D8
:101780002003C0921F0310C0772071F0F092200355
:10179000E0921F0309C0442039F002C0222321F047
:1017A0001092200310921F0360911F0360931E0389
:1017B00070E080E090E04AE00E9430018CE291E02D
:1017C0000E941E0188E00E94AA0160911E038CEA1B
:1017D00091E00E946A070E94B4016AE070E080E034
:1017E00090E00E94C8070E94D20628CF10932003E1
:1017F00000931F03D9CF5058BB27AA270E94130C70
:101800000C94F20C0E94E40C38F00E94EB0C20F0D7
:1018100039F49F3F19F426F40C94E10C0EF4E09592
:10182000E7FB0C94DB0CE92F0E94030D58F3BA1769
:10183000620773078407950720F079F4A6F50C94E6
:10184000250D0EF4E0950B2EBA2FA02D0B01B9013A
:1018500090010C01CA01A0011124FF27591B99F026
:10186000593F50F4503E68F11A16F040A22F232F32
:10187000342F4427585FF3CF469537952795A79582
:10188000F0405395C9F77EF41F16BA0B620B730B29
:10189000840BBAF09150A1F0FF0FBB1F661F771F9A
:1018A000881FC2F70EC0BA0F621F731F841F48F44F
:1018B000879577956795B795F7959E3F08F0B0CFD8
:1018C0009395880F08F09927EE0F979587950895BF
:1018D0000E946F0C6894B1110C94260D08950E941B
:1018E0000B0D88F09F5798F0B92F9927B751B0F09A
:1018F000E1F0660F771F881F991F1AF0BA95C9F794
:1019000014C0B13091F00E94250DB1E008950C94FF
:10191000250D672F782F8827B85F39F0B93FCCF3B2
:10192000869577956795B395D9F73EF49095809510
:10193000709561957F4F8F4F9F4F0895E89409C030
:1019400097FB3EF490958095709561957F4F8F4FF2
:101950009F4F9923A9F0F92F96E9BB279395F69508
:10196000879577956795B795F111F8CFFAF4BB0F86
:1019700011F460FF1BC06F5F7F4F8F4F9F4F16C0EA
:10198000882311F096E911C0772321F09EE8872F74
:10199000762F05C0662371F096E8862F70E060E030
:1019A0002AF09A95660F771F881FDAF7880F9695A9
:1019B000879597F9089597F99F6780E870E060E050
:1019C00008959FEF80EC089500240A9416161706D8
:1019D00018060906089500240A9412161306140620
:1019E00005060895092E0394000C11F4882352F083
:1019F000BB0F40F4BF2B11F460FF04C06F5F7F4F3B
:101A00008F4F9F4F089557FD9058440F551F59F021
:101A10005F3F71F04795880F97FB991F61F09F3FDB
:101A200079F087950895121613061406551FF2CF04
:101A30004695F1DF08C0161617061806991FF1CF54
:101A400086957105610508940895E894BB2766277B
:101A50007727CB0197F908950E943F0D0C94F20C63
:101A60000E94E40C38F00E94EB0C20F0952311F05A
:101A70000C94DB0C0C94E10C11240C94260D0E94A8
:101A8000030D70F3959FC1F3950F50E0551F629FB2
:101A9000F001729FBB27F00DB11D639FAA27F00DC7
:101AA000B11DAA1F649F6627B00DA11D661F829FEE
:101AB0002227B00DA11D621F739FB00DA11D621FD3
:101AC000839FA00D611D221F749F3327A00D611DF0
:101AD000231F849F600D211D822F762F6A2F1124D2
:101AE0009F5750409AF0F1F088234AF0EE0FFF1F05
:101AF000BB1F661F771F881F91505040A9F79E3F5C
:101B0000510580F00C94DB0C0C94260D5F3FE4F340
:101B1000983ED4F3869577956795B795F795E795B1
:101B20009F5FC1F7FE2B880F911D9695879597F9BA
:101B3000089519F416F40C94E10C0C94DF0D0E9436
:101B40000B0DB8F39923C9F3B6F39F57550B87FFD5
:101B50000E94ED0D0024A0E640EA900180585695C1
:101B6000979528F4805C660F771F881F20F0261752
:101B70003707480730F4621B730B840B2029312987
:101B80004A2BA69517940794202531254A2758F704
:101B9000660F771F881F20F026173707480730F495
:101BA000620B730B840B200D311D411DA09581F735
:101BB000B901842F9158880F9695879508959F3F76
:101BC00031F0915020F4879577956795B795880FF8
:101BD000911D9695879597F9089591505040660FFD
:101BE000771F881FD2F70895AA1BBB1B51E107C0BE
:101BF000AA1FBB1FA617B70710F0A61BB70B881F9D
:101C0000991F5A95A9F780959095BC01CD0108952B
:101C1000A1E21A2EAA1BBB1BFD010DC0AA1FBB1FF0
:101C2000EE1FFF1FA217B307E407F50720F0A21B62
:101C3000B30BE40BF50B661F771F881F991F1A94CF
:101C400069F760957095809590959B01AC01BD01F9
:101C5000CF010895052E97FB1EF400940E94410EBB
:101C600057FD07D00E94080E07FC03D04EF40C94D9
:101C7000410E50954095309521953F4F4F4F5F4F06
:101C8000089590958095709561957F4F8F4F9F4FE8
:101C90000895EE0FFF1F0590F491E02D099481E067
:0C1CA00090E0F8940C94540EF894FFCFE0
:101CAC009400950096009700000000006906D60588
:101CBC000106B006320610062406000000006A0772
:101CCC003A079A070E0732071E070F070D0A005036
:101CDC006C616361206465205265746F726E6F0075
:00000001FF
