:100000000C9469000C9491000C9491000C94910054
:100010000C9491000C9491000C9491000C9491001C
:100020000C9491000C9491000C9491000C9491000C
:100030000C9491000C9491000C9491000C949100FC
:100040000C94D8040C9491000C9448050C9422054F
:100050000C9491000C9491000C9491000C949100DC
:100060000C947A050C949100ED0AF20A080B190B16
:10007000260B3C0B450B0000000023002600290046
:100080000000000800020100000304070000000057
:100090000000000000000000250028002B000000E8
:1000A0000000240027002A000404040404040404BB
:1000B0000202020202020303030303030102040813
:1000C00010204080010204081020010204081020C2
:1000D000130C11241FBECFEFD8E0DEBFCDBF11E05F
:1000E000A0E0B1E0E4E2FEE102C005900D92A23989
:1000F000B107D9F723E0A2E9B1E001C01D92AC3706
:10010000B207E1F710E0C9E6D0E004C02197FE0194
:100110000E94050FC836D107C9F70E94700A0C94D7
:10012000100F0C940000833081F028F4813099F096
:100130008230A1F008958730A9F08830B9F084307A
:10014000D1F4809180008F7D03C0809180008F77F3
:1001500080938000089584B58F7702C084B58F7D29
:1001600084BD08958091B0008F7703C08091B00066
:100170008F7D8093B0000895CF93DF93282F30E0D8
:10018000F901E058FF4F8491F901E454FF4FD491F5
:10019000F901E855FF4FC491CC2391F081110E94E1
:1001A0009300EC2FF0E0EE0FFF1FEA58FF4FA591F0
:1001B000B491EC91ED2381E090E021F480E002C065
:1001C00080E090E0DF91CF9108951F93CF93DF936C
:1001D000282F30E0F901E058FF4F8491F901E454F1
:1001E000FF4FD491F901E855FF4FC491CC23C9F0DA
:1001F000162F81110E949300EC2FF0E0EE0FFF1FED
:10020000EC56FF4FA591B4918FB7F894111105C02A
:100210009C91ED2FE095E92302C0EC91ED2BEC933E
:100220008FBFDF91CF911F9108953FB7F8948091D0
:10023000E7019091E801A091E901B091EA0126B5AA
:10024000A89B05C02F3F19F00196A11DB11D3FBF0E
:10025000BA2FA92F982F8827820F911DA11DB11D9C
:10026000BC01CD0142E0660F771F881F991F4A9598
:10027000D1F70895CF92DF92EF92FF920F931F93E1
:10028000CF93DF936C017A018B01C0E0D0E0CE15F3
:10029000DF0589F0D8016D918D01D601ED91FC91BA
:1002A0000190F081E02DC6010995892B11F47E01A2
:1002B00002C02196ECCFC701DF91CF911F910F9122
:1002C000FF90EF90DF90CF900895FC01538D448D07
:1002D000252F30E0842F90E0821B930B541710F0F1
:1002E000CF96089501970895FC01918D828D9817FE
:1002F00061F0828DDF01A80FB11D5D968C91928D0A
:100300009F5F9F73928F90E008958FEF9FEF089506
:10031000FC01918D828D981731F0828DE80FF11DCF
:10032000858D90E008958FEF9FEF0895FC01918DEA
:10033000228D892F90E0805C9F4F821B91098F73E3
:100340009927089583E692E00E94960121E0892B87
:1003500009F420E0822F0895FC01848DDF01A80FAD
:10036000B11DA35ABF4F2C91848D90E001968F73DD
:100370009927848FA689B7892C93A089B1898C91FC
:1003800080648C93938D848D981306C00288F389C2
:10039000E02D80818F7D80830895EF92FF920F93EF
:1003A0001F93CF93DF93EC0181E0888F9B8D8C8D21
:1003B000981305C0E889F989808185FD24C0F62E4F
:1003C0000B8D10E00F5F1F4F0F731127E02E8C8DE8
:1003D000E8120CC00FB607FCFACFE889F9898081D2
:1003E00085FFF5CFCE010E94AC01F1CF8B8DFE01D0
:1003F000E80FF11DE35AFF4FF0820B8FEA89FB896A
:100400008081806207C0EE89FF896083E889F9896D
:1004100080818064808381E090E0DF91CF911F91A3
:100420000F91FF90EF900895CF93DF93EC01888DAB
:100430008823C9F0EA89FB89808185FD05C0A889E8
:10044000B9898C9186FD0FC00FB607FCF5CF80816E
:1004500085FFF2CFA889B9898C9185FFEDCFCE01B8
:100460000E94AC01E7CFDF91CF91089580E090E04A
:10047000892B29F00E94A20181110C94000008959B
:1004800085ED8093BC008091BC0084FDFCCF109270
:10049000310208954091B401262F30E0240F311D20
:1004A00021323105DCF4209131022430C9F4FC0101
:1004B00080E090E0861758F43091B4012191DC017E
:1004C000AE56BE4FA30FB11D2C930196F3CF809172
:1004D000B401680F6093B40180E0089581E008954D
:1004E00082E008950895E091560280915502E81740
:1004F00030F4F0E0EE5CFD4F808190E008958FEFE6
:100500009FEF08959091560280915502981750F4EC
:10051000E92FF0E0EE5CFD4F208130E09F5F90938B
:10052000560202C02FEF3FEFC90108958091550296
:1005300090E020915602821B91090895CF92DF929C
:10054000EF92FF920F931F93CF93DF937C01262F9F
:10055000972F8A0180915202882391F0C62FD72FBE
:100560006E01C40ED51ECC15DD0571F06991D70161
:10057000ED91FC910190F081E02DC7010995F3CF39
:10058000642F822F0E944A02C801DF91CF911F91F0
:100590000F91FF90EF90DF90CF900895CF93DF936E
:1005A0001F92CDB7DEB76983209152022223D1F08A
:1005B00020915302203240F021E030E0FC013383EF
:1005C000228380E090E015C080915402E82FF0E093
:1005D000E551FE4F998190838F5F80935402809301
:1005E000530205C061E0CE0101960E944A0281E0FB
:1005F00090E00F90DF91CF910895089580E090E012
:1006000008950E940B0F8F929F92AF92BF92CF924C
:10061000DF92EF92FF926B017C010E9415014B016A
:100620005C01C114D104E104F104F1F00E94150150
:10063000DC01CB0188199909AA09BB09883E9340BE
:10064000A105B10570F321E0C21AD108E108F10853
:1006500088EE880E83E0981EA11CB11CC114D10441
:10066000E104F10419F7DDCFFF90EF90DF90CF9018
:10067000BF90AF909F908F900895CF92DF92EF92AE
:10068000FF920F931F93CF93DF93DBE714E10EE20A
:100690008CE5F82E9FE8E92EC2E080910603909148
:1006A00007038A3091050CF0F7C09C01297F232BAA
:1006B00019F0089709F0AFC0D093260310932703D1
:1006C000009328038DE00E94580882E890E00E9481
:1006D000BF086091280387E592E00E94CE020E9445
:1006E00062088DE00E94580883E890E00E94BF08ED
:1006F0006091270387E592E00E94CE020E94620883
:100700008DE00E94580884E890E00E94BF08609144
:10071000260387E592E00E94CE020E946208F092D2
:100720002903E0922A03C0932B038DE00E9458080E
:1007300085E890E00E94BF0860912B0387E592E076
:100740000E94CE020E9462088DE00E94580886E84E
:1007500090E00E94BF0860912A0387E592E00E9422
:10076000CE020E9462088DE00E94580887E890E05F
:100770000E94BF086091290387E592E00E94CE02A3
:100780000E946208C0932C0310922D038DE00E94FA
:10079000580888E890E00E94BF0860912D0387E523
:1007A00092E00E94CE020E9462088DE00E945808EA
:1007B00089E890E00E94BF0860912C0387E592E0F1
:1007C0000E94CE020E9462088DE00E9458088BE8C9
:1007D00090E00E94BF086091560387E592E00E9476
:1007E000CE020E94620880EB0E94DC0881E00E9439
:1007F000DC0880E10E94DC0880E20E94DC086AE0FC
:1008000070E080E090E00E9403036EE070E080E022
:1008100090E00E94030380910603909107030197E3
:10082000A1F461E086E00E94E5000E94F4088DE0FA
:100830000E94580881E890E00E94BF0861E087E5C7
:1008400092E00E94CE020E9462088091060390917D
:1008500007039C012B7F2330310511F0059731F4FC
:1008600060E086E00E94E5000E94F40880910603A3
:1008700090910703099731F460E086E00E94E5005B
:100880000E94F408809106039091070301969093CB
:1008900007038093060301CF6091500370915103C9
:1008A00080915203909153030E945C0D6B017C0177
:1008B000209165033091660340916703509168036E
:1008C0000E94E80D20E038E849E256E40E94B80CA6
:1008D0000E94240D6093590370935A0380935B0325
:1008E00090935C036E3121E07207810591058CF4D1
:1008F0002091690330916A0340916B0350916C031E
:10090000C701B6010E94E80D20E03CEF4DEB56E434
:1009100032C08B019C010F51114021093109043C67
:1009200011052105310588F420916D0330916E0386
:1009300040916F0350917003C701B6010E94E80D0A
:1009400020E030EA47E556E416C06B3E22E072072D
:1009500081059105A4F020917103309172034091BB
:10096000730350917403C701B6010E94E80D20E0A3
:1009700038E646EC55E40E94B80C0E94240D6093C2
:100980005D0370935E0380935F03909360036091B7
:100990005D0370915E0380915F0390916003DF912E
:1009A000CF911F910F91FF90EF90DF90CF9008951E
:1009B0001F920F920FB60F9211242F933F938F9394
:1009C0009F93AF93BF938091E3019091E401A09135
:1009D000E501B091E6013091E20123E0230F2D37CC
:1009E00020F40196A11DB11D05C026E8230F029633
:1009F000A11DB11D2093E2018093E3019093E401D6
:100A0000A093E501B093E6018091E7019091E801A0
:100A1000A091E901B091EA010196A11DB11D809359
:100A2000E7019093E801A093E901B093EA01BF9137
:100A3000AF919F918F913F912F910F900FBE0F908B
:100A40001F9018951F920F920FB60F9211242F939B
:100A50003F934F935F936F937F938F939F93AF9346
:100A6000BF93EF93FF9383E692E00E94AC01FF9166
:100A7000EF91BF91AF919F918F917F916F915F9116
:100A80004F913F912F910F900FBE0F901F9018958F
:100A90001F920F920FB60F9211242F938F939F9353
:100AA000EF93FF93E0917302F09174028081E091E3
:100AB0007902F0917A0282FD12C0908180917C02CD
:100AC0008F5F8F7320917D02821751F0E0917C023D
:100AD000F0E0ED59FD4F958F80937C0201C080813D
:100AE000FF91EF919F918F912F910F900FBE0F90DB
:100AF0001F9018951F920F920FB60F9211242F93EB
:100B00003F934F935F936F937F938F939F93AF9395
:100B1000BF93EF93FF938091B900887F803609F4EB
:100B20009CC068F5883209F45BC090F4803109F408
:100B300054C038F4882309F4F6C0883009F44DC055
:100B4000F6C0883109F44CC0803209F45DC0EFC0B2
:100B5000803409F468C048F4803309F455C0883300
:100B600009F0E5C080932F02D8C0803509F44FC04A
:100B7000883509F45DC0883409F0D9C0D6C08839F9
:100B800009F4C7C0A8F4883709F467C038F4883678
:100B900009F463C0803709F460C0C9C0883809F41B
:100BA000B8C0803909F45FC0803809F0C0C05BC0AC
:100BB000803B09F486C038F4803A09F466C0883A6C
:100BC00009F47FC0B4C0803C09F4A7C0883C09F494
:100BD000A4C0883B09F48AC0AAC080912C0210C02E
:100BE00090912E0280912D02981770F5E0912E02BF
:100BF00081E08E0F80932E02F0E0E55FFD4F808153
:100C00008093BB0085EC86C080932F028EC0E0915C
:100C10002E0281E08E0F80932E028091BB00F0E0C7
:100C2000E55FFD4F808390912E0280912D026EC072
:100C3000E0912E0281E08E0F80932E028091BB0006
:100C4000F0E0E55FFD4F80838091300281116DC03F
:100C500081E080932B0284EA61C083E080933102BB
:100C60001092D801CFCF8091D801803208F051C0C6
:100C7000E091D80181E08E0F8093D8018091BB0074
:100C8000F0E0E854FE4F8083BDCF85EC8093BC003C
:100C9000109231028091D801803230F4E091D80175
:100CA000F0E0E854FE4F10826091D80170E0E091CE
:100CB000B601F091B70188EB91E009951092D80147
:100CC00036C084E0809331021092B5011092B401D5
:100CD000E091B201F091B30109958091B4018111C5
:100CE00005C081E08093B40110929201E091B501BA
:100CF00081E08E0F8093B501F0E0EE56FE4F8081CB
:100D00008093BB009091B5018091B401981708F4CD
:100D100079CF85E88093BC000AC085EC8093BC0045
:100D20001092310204C010922F020E944002FF91E3
:100D3000EF91BF91AF919F918F917F916F915F9153
:100D40004F913F912F910F900FBE0F901F901895CC
:100D50001092310281E08093300210922B0261E008
:100D600082E10E94E50061E083E10E94E500E9EB99
:100D7000F0E080818E7F808380818D7F808388E416
:100D80008093B80085E48093BC000895809131027F
:100D90008111FCCF81E080933102809330029FEF7C
:100DA00090932F0210922E0210922D0280932C020B
:100DB00080912C028A6180932C0280912B028130D9
:100DC00061F410922B0280912C028093BB008091E1
:100DD000BC0083FDF8CF85EC01C085EE8093BC009C
:100DE000809131028130E1F380912E02811103C0A4
:100DF00080912E0201C081E0ABE0B2E022E332E05C
:100E0000F9019E2F921B981718F49D919193F9CF99
:100E1000109256028093550208950E94C606909142
:100E2000550280915602981749F087E592E00E949A
:100E300082029093090380930803F1CF6AE070E087
:100E400080E090E00C940303CF92DF92EF92FF9248
:100E50006B017C01E0917302F091740282E0808367
:100E6000C11481EED806E104F104B1F060E079E04C
:100E70008DE390E0A70196010E94C40EDA01C9013A
:100E80000197A109B109B695A795979587959C01FA
:100E9000211580E13807B8F0E0917302F0917402F7
:100EA000108260E874E88EE190E0A70196010E944C
:100EB000C40EDA01C9010197A109B109B695A79538
:100EC000979587959C01E0916F02F09170023083B5
:100ED000E0917102F0917202208310927B02E09106
:100EE0007702F091780286E08083E0917502F091BC
:100EF0007602808180618083E0917502F0917602B4
:100F0000808188608083E0917502F0917602808113
:100F100080688083E0917502F091760280818F7DF8
:100F20008083FF90EF90DF90CF900895CF93DF9371
:100F300090E0FC01E454FF4F2491FC01E855FF4F81
:100F400084918823C1F090E0880F991FFC01E2563C
:100F5000FF4FC591D491FC01EC56FF4FA591B49180
:100F60009FB7F8948881E22FE0958E2388838C9137
:100F7000E823EC939FBFDF91CF910895009769F02C
:100F8000FC0101900020E9F73197AF01481B590B94
:100F9000BC0183E692E00C943A0180E090E0089571
:100FA0008F929F92AF92BF920F931F93CF93DF9335
:100FB000CDB7DEB7A1970FB6F894DEBF0FBECDBF99
:100FC00019A2423008F44AE08E010F5D1F4F842EB3
:100FD000912CA12CB12CA50194010E94C40EE62FE6
:100FE000B901CA0101501109EA3014F4E05D01C0F1
:100FF000E95CD801EC93232B242B252B61F7C80146
:101000000E94BE07A1960FB6F894DEBF0FBECDBFFB
:10101000DF91CF911F910F91BF90AF909F908F90D4
:101020000895CF92DF92EF92FF92CF93DF936C01FE
:10103000990FEE08FF08F7FE1AC0E0916302F091E5
:1010400064020190F081E02D6DE283E692E0099563
:10105000EC0166277727CB016C197D098E099F0962
:101060004AE00E94D0077C01EC0EFD1E06C04AE05B
:10107000C701B6010E94D0077C018FE891E00E9471
:10108000BE078E0D9F1DDF91CF91FF90EF90DF90F7
:10109000CF900895CF93DF930E94BE07EC018FE8B5
:1010A00091E00E94BE078C0F9D1FDF91CF910895A4
:1010B00091E09093520280937B031092540210921D
:1010C000530208952091530290917B03213208F03E
:1010D0004AC0809131028111FCCF32E0309331025D
:1010E00031E0309330023FEF30932F0210922E0206
:1010F00020932D02ABEEB1E04BE052E0FA013E2F1F
:10110000341B321718F43D913193F9CF10922C0211
:1011100020912C02990F922B90932C0290912B02EC
:10112000913061F410922B0290912C029093BB00AD
:101130009091BC0093FDF8CF95EC01C095EE909393
:10114000BC00909131029230E1F390912F029F3FC9
:1011500079F080912F02803241F080912F0280330C
:1011600031F084E005C081E003C082E001C083E08B
:101170001092540210925302109252020895682F56
:1011800087E592E00C94CE02CF93DF931F92CDB708
:10119000DEB7682F8DE069830E94580880EB90E0ED
:1011A0000E94BF08698187E592E00E94CE020F90FD
:1011B000DF91CF910C946208CF93DF931F92CDB74C
:1011C000DEB7682F8DE069830E94580880E890E0C0
:1011D0000E94BF08698187E592E00E94CE020F90CD
:1011E000DF91CF910C9462082F923F924F925F92C1
:1011F0006F927F928F929F92AF92BF92CF92DF9227
:10120000EF92FF920F931F93CF93DF9300D0CDB750
:10121000DEB78FE80E94C4080E940D078091080382
:10122000909109038270992790931D0380931C036A
:1012300064E0862E912CA12CB12C80911C039091FE
:101240001D03029709F037C11092010310920003A9
:1012500080910003909101038430910574F7880F09
:10126000991FFC01E65FFC4F80810E94C4086AE080
:1012700070E080E090E00E9403030E94C606909117
:1012800055028091560200910003109101039817B6
:1012900069F087E592E00E9482029801220F331FD5
:1012A0002E5E3C4FF90191838083E9CF0330110515
:1012B00009F0F7C080E30E94DC0830901203212C73
:1012C00060911403709115036229732970932F03A1
:1012D00060932E03F0911603FA831982009118038C
:1012E0001091190329813A81022B132B109331039A
:1012F00000933003072E000C880B990B0E945C0DA5
:101300002B013C01B801110F880B990B0E945C0D59
:101310006B017C01A3019201C301B2010E94E80D9F
:101320002B013C01A7019601C701B6010E94E80DFF
:101330009B01AC01C301B2010E94B80C0E94240DB4
:101340006093320370933303809334039093350397
:10135000E0900203F09003030E945C0D0E945B0E7C
:101360008701000F111F0A5C1C4F0E942B0DF80112
:101370007183608387010F5F1F4F109303030093F6
:1013800002030330110509F08CC08FE80E94C408E5
:101390000E940D078091080390910903847099279A
:1013A00090931B0380931A03049709F07AC020914D
:1013B000040330910503F901EE0FFF1FEE0FFF1F2D
:1013C000E45CFC4F4091380350913903809136031F
:1013D00090913703840F951F40913A0350913B033E
:1013E000840F951FB8010E94B00ECB01A0E0B0E0C1
:1013F00080839183A283B38310921D0310921C03F8
:1014000010920303109202032430310509F040C00A
:101410004091400350914103609142037091430316
:101420008091440390914503A0914603B0914703F6
:10143000480F591F6A1F7B1F8091480390914903F1
:10144000A0914A03B0914B03480F591F6A1F7B1F9D
:1014500080914C0390914D03A0914E03B0914F03A6
:101460008A019B01080F191F2A1F3B1FC901B801E0
:10147000A50194010E94E60E20935003309351037E
:1014800040935203509353031092050310920403A8
:101490008091040390910503019690930503809336
:1014A000040380910003909101030196909301033E
:1014B00080930003CDCE0F900F90DF91CF911F91BD
:1014C0000F91FF90EF90DF90CF90BF90AF909F90E3
:1014D0008F907F906F905F904F903F902F900895E6
:1014E000789484B5826084BD84B5816084BD85B5FF
:1014F000826085BD85B5816085BD80916E0081600B
:1015000080936E00109281008091810082608093B0
:1015100081008091810081608093810080918000B2
:101520008160809380008091B10084608093B100DD
:101530008091B00081608093B00080917A008460D7
:1015400080937A0080917A00826080937A00809103
:101550007A00816080937A0080917A00806880931D
:101560007A001092C1001092560210925502109209
:101570005402109253020E94A80660E875E280E0CF
:1015800090E00E94240788E00E94960789E00E946C
:10159000960784E00E94960783E00E94960786E003
:1015A000E82EF12C95E0C92ED12C24E0A22EB12CEE
:1015B000C1E0D0E05524539402E010E033E0832EE4
:1015C000912CE091E001F091E101E730F10508F0A4
:1015D00063C0EC5CFF4F0C94050F8CE291E00E941D
:1015E0004A0822C085E391E00E944A088091D9010F
:1015F000882329F09092E1018092E00155C080910A
:10160000DE0181110BC18091DD01811107C14CC048
:101610008EE391E00E944A088091DD01852590913A
:10162000DE01981708F040C0D093E101C093E001BB
:101630003BC087E491E00E944A088091DA01882348
:1016400099F3B092E101A092E0012EC080E591E013
:101650000E944A088091DE01882329F0D092E1019E
:10166000C092E00121C08091DD018823E9F0F09271
:10167000E101E092E00118C089E591E00E944A088A
:101680008091DC01882381F00BC082E691E00E940A
:101690004A088091DB01F6CF8BE691E00E944A0870
:1016A0001092E1011092E00164EF71E080E090E0BF
:1016B0000E94030310920703109206030E943D0349
:1016C00080915D0390915E03A0915F03B0916003F0
:1016D0008093610390936203A0936303B0936403C8
:1016E0003C010E94110820EE621621E072061CF4F3
:1016F0005092D90102C01092D9018EE791E00E9468
:101700004A088091D90190E00E94110864EF71E0CD
:1017100080E090E00E9403031092070310920603FA
:101720000E943D0380915D0390915E03A0915F0351
:10173000B09160038093610390936203A09363036D
:10174000B0936403843C99401CF45092DA0102C0C7
:101750001092DA0164EF71E080E090E00E940303F0
:1017600088E00E94BC0021E0892B09F420E020934E
:10177000DE0164EF71E080E090E00E94030389E005
:101780000E94BC0021E0892B09F420E02093DD01B8
:1017900064EF71E080E090E00E94030384E00E9427
:1017A000BC0021E0892B09F420E02093DC0164EFE8
:1017B00071E080E090E00E94030383E00E94BC009F
:1017C00021E0892B09F420E02093DB0164EF71E034
:1017D00080E090E00E9403036091E0016093DF01EC
:1017E00070E080E090E04AE00E94D0078FE891E04E
:1017F0000E94BE0788E00E9458086091DF0187E5DB
:1018000092E00E94CE020E9462086AE070E080E0EE
:1018100090E00E9403030E943602D3CE1093E101B0
:101820000093E00141CFCF93DF93E3E6F2E0138230
:10183000128288EE93E0A0E0B0E084839583A683D3
:10184000B7832CE031E03183208325EC30E035870D
:10185000248724EC30E03787268720EC30E0318B7A
:10186000208B21EC30E0338B228B22EC30E0358B67
:10187000248B26EC30E0378B268B118E128E138E44
:10188000148EE7E5F2E01382128284839583A683A7
:10189000B7838EE191E091838083C0E0D3E01B8227
:1018A0001A821D821C8288E0E0E0F1E0AAE0B3E049
:1018B00001900D928A95E1F78BE794E1AEE2B0E0FA
:1018C0008E8F9F8FA8A3B9A38CE59FE8A2E0B0E01C
:1018D0008AA39BA3ACA3BDA384E18093560386EDAA
:1018E00091E090935803809357038DED94E2A6E026
:1018F000BFEB8093650390936603A0936703B09357
:10190000680380E59CEFA8E9BFEB8093690390939F
:101910006A03A0936B03B0936C0383EC93EDABE28B
:10192000BFEB80936D0390936E03A0936F03B0930E
:10193000700388E195E9A4E9BEEB8093710390936D
:101940007203A0937303B093740360E875E280E0C0
:1019500090E00E94240710925602109255021092B5
:10196000540210925302DF91CF910C94A806505864
:10197000BB27AA270E94CF0C0C94AE0D0E94A00D8D
:1019800038F00E94A70D20F039F49F3F19F426F497
:101990000C949D0D0EF4E095E7FB0C94970DE92F48
:1019A0000E94BF0D58F3BA176207730784079507A3
:1019B00020F079F4A6F50C94E10D0EF4E0950B2ED1
:1019C000BA2FA02D0B01B90190010C01CA01A00191
:1019D0001124FF27591B99F0593F50F4503E68F1EC
:1019E0001A16F040A22F232F342F4427585FF3CF2D
:1019F000469537952795A795F0405395C9F77EF4FE
:101A00001F16BA0B620B730B840BBAF09150A1F046
:101A1000FF0FBB1F661F771F881FC2F70EC0BA0FCC
:101A2000621F731F841F48F4879577956795B79554
:101A3000F7959E3F08F0B0CF9395880F08F099274F
:101A4000EE0F9795879508950E942B0D6894B1111C
:101A50000C94E20D08950E94C70D88F09F5798F0EE
:101A6000B92F9927B751B0F0E1F0660F771F881FA3
:101A7000991F1AF0BA95C9F714C0B13091F00E94BD
:101A8000E10DB1E008950C94E10D672F782F8827C0
:101A9000B85F39F0B93FCCF3869577956795B395E4
:101AA000D9F73EF490958095709561957F4F8F4F53
:101AB0009F4F0895E89409C097FB3EF49095809558
:101AC000709561957F4F8F4F9F4F9923A9F0F92F04
:101AD00096E9BB279395F695879577956795B79582
:101AE000F111F8CFFAF4BB0F11F460FF1BC06F5F68
:101AF0007F4F8F4F9F4F16C0882311F096E911C07A
:101B0000772321F09EE8872F762F05C0662371F09A
:101B100096E8862F70E060E02AF09A95660F771FAE
:101B2000881FDAF7880F9695879597F9089597F9A2
:101B30009F6780E870E060E008959FEF80EC089573
:101B400000240A941616170618060906089500249C
:101B50000A9412161306140605060895092E039416
:101B6000000C11F4882352F0BB0F40F4BF2B11F48A
:101B700060FF04C06F5F7F4F8F4F9F4F089557FDE9
:101B80009058440F551F59F05F3F71F04795880FEB
:101B900097FB991F61F09F3F79F087950895121682
:101BA00013061406551FF2CF4695F1DF08C016162E
:101BB00017061806991FF1CF8695710561050894DF
:101BC0000895E894BB2766277727CB0197F90895F6
:101BD0000E94FB0D0C94AE0D0E94A00D38F00E94E7
:101BE000A70D20F0952311F00C94970D0C949D0DEA
:101BF00011240C94E20D0E94BF0D70F3959FC1F368
:101C0000950F50E0551F629FF001729FBB27F00DAA
:101C1000B11D639FAA27F00DB11DAA1F649F6627FF
:101C2000B00DA11D661F829F2227B00DA11D621F4E
:101C3000739FB00DA11D621F839FA00D611D221F08
:101C4000749F3327A00D611D231F849F600D211DEC
:101C5000822F762F6A2F11249F5750409AF0F1F06F
:101C600088234AF0EE0FFF1FBB1F661F771F881FD8
:101C700091505040A9F79E3F510580F00C94970D6C
:101C80000C94E20D5F3FE4F3983ED4F3869577958C
:101C90006795B795F795E7959F5FC1F7FE2B880F7E
:101CA000911D9695879597F9089519F416F40C945B
:101CB0009D0D0C949B0E0E94C70DB8F39923C9F398
:101CC000B6F39F57550B87FF0E94A90E0024A0E68C
:101CD00040EA900180585695979528F4805C660FED
:101CE000771F881F20F026173707480730F4621B3C
:101CF000730B840B202931294A2BA695179407943E
:101D0000202531254A2758F7660F771F881F20F0B6
:101D100026173707480730F4620B730B840B200D2E
:101D2000311D411DA09581F7B901842F9158880F6D
:101D30009695879508959F3F31F0915020F48795AF
:101D400077956795B795880F911D9695879597F923
:101D5000089591505040660F771F881FD2F708955D
:101D6000AA1BBB1B51E107C0AA1FBB1FA617B707C1
:101D700010F0A61BB70B881F991F5A95A9F78095DD
:101D80009095BC01CD010895A1E21A2EAA1BBB1BA0
:101D9000FD010DC0AA1FBB1FEE1FFF1FA217B30737
:101DA000E407F50720F0A21BB30BE40BF50B661F4D
:101DB000771F881F991F1A9469F760957095809511
:101DC00090959B01AC01BD01CF010895052E97FBB5
:101DD0001EF400940E94FD0E57FD07D00E94C40E11
:101DE00007FC03D04EF40C94FD0E509540953095B1
:101DF00021953F4F4F4F5F4F089590958095709577
:101E000061957F4F8F4F9F4F0895EE0FFF1F0590F5
:101E1000F491E02D099481E090E0F8940C94100F77
:041E2000F894FFCF64
:101E2400940095009600970000000000CD013A014F
:101E34006501140296017401880100000000CE02BD
:101E44009E02FE027202960282027302457374615C
:101E5400646F20300045737461646F2031004573F2
:101E64007461646F20320045737461646F203300C1
:101E740045737461646F20340045737461646F202A
:101E8400350045737461646F203600457374616472
:101E94006F20706F722064656661756C7400506C9D
:101EA400616361206465205265746F726E6F000D0A
:021EB4000A0022
:00000001FF
