:100000000C9464000C948C000C948C000C948C0068
:100010000C948C000C948C000C948C000C948C0030
:100020000C948C000C948C000C948C000C948C0020
:100030000C948C000C948C000C948C000C948C0010
:100040000C9411030C948C000C9481030C945B03AE
:100050000C948C000C948C000C948C000C948C00F0
:100060000C94B3030C948C00F805FD052A06550684
:100070008006A206C8060000000800020100000376
:100080000407000000000000000000000000250040
:1000900028002B0000000000240027002A00040490
:1000A0000404040404040202020202020303030320
:1000B00003030102040810204080010204081020FC
:1000C000010204081020E10411241FBECFEFD8E084
:1000D000DEBFCDBF11E0A0E0B1E0E6E0FEE002C08F
:1000E00005900D92AE34B107D9F722E0AEE4B1E04D
:1000F00001C01D92A639B207E1F710E0C4E6D0E0D6
:1001000004C02197FE010E94F606C336D107C9F745
:100110000E941A050C9401070C94000090E0FC0169
:10012000EE54FF4F2491FC01E256FF4F8491882347
:1001300099F090E0880F991FFC01EC56FF4FA591B4
:10014000B491FC01E657FF4F859194918FB7F894D5
:10015000EC91E22BEC938FBF089590E0FC01EA58FC
:10016000FF4F3491FC01EE54FF4F2491FC01E25605
:10017000FF4FE491EE2309F43BC0332339F13330D0
:1001800091F038F43130A9F0323001F584B58F7D2B
:1001900012C0373091F03830A1F03430B9F480918A
:1001A00080008F7D03C0809180008F7780938000D6
:1001B0000DC084B58F7784BD09C08091B0008F7762
:1001C00003C08091B0008F7D8093B000F0E0EE0F0F
:1001D000FF1FE657FF4FA591B4918FB7F894EC91AC
:1001E000611103C020952E2301C02E2B2C938FBFAD
:1001F0000895CF92DF92EF92FF920F931F93CF93C8
:10020000DF936C017A018B01C0E0D0E0CE15DF05F1
:1002100089F0D8016D918D01D601ED91FC9101908D
:10022000F081E02DC6010995892B11F47E0102C0F1
:100230002196ECCFC701DF91CF911F910F91FF90D5
:10024000EF90DF90CF900895E0916E01F0916F01F3
:10025000309729F01092DB011092DA010994089589
:10026000CF93DF93AC01E091E201F091E30130978D
:10027000F1F09091DD018091DC019817C0F090E0E1
:10028000292F30E02617370754F4D901A25BBE4F5F
:10029000EA01C20FD31F88818C939F5FF1CF109228
:1002A000DD016093DC01CB01DF91CF910994DF91F7
:1002B000CF910895FC01538D448D252F30E0842F7C
:1002C00090E0821B930B541710F0CF96089501977E
:1002D0000895FC01918D828D981761F0828DDF0168
:1002E000A80FB11D5D968C91928D9F5F9F73928F29
:1002F00090E008958FEF9FEF0895FC01918D828D1E
:10030000981731F0828DE80FF11D858D90E00895EA
:100310008FEF9FEF0895FC01918D228D892F90E042
:10032000805C9F4F821B91098F73992708958DEEF2
:1003300091E00E948B0121E0892B09F420E0822FBB
:100340000895FC01848DDF01A80FB11DA35ABF4F92
:100350002C91848D90E001968F739927848FA689C4
:10036000B7892C93A089B1898C9180648C93938DEB
:10037000848D981306C00288F389E02D80818F7DDB
:1003800080830895EF92FF920F931F93CF93DF9393
:10039000EC0181E0888F9B8D8C8D981305C0E889D6
:1003A000F989808185FD24C0F62E0B8D10E00F5F4A
:1003B0001F4F0F731127E02E8C8DE8120CC00FB663
:1003C00007FCFACFE889F989808185FFF5CFCE0156
:1003D0000E94A101F1CF8B8DFE01E80FF11DE35AC0
:1003E000FF4FF0820B8FEA89FB898081806207C012
:1003F000EE89FF896083E889F98980818064808340
:1004000081E090E0DF91CF911F910F91FF90EF90ED
:100410000895CF93DF93EC01888D8823C9F0EA8992
:10042000FB89808185FD05C0A889B9898C9186FDED
:100430000FC00FB607FCF5CF808185FFF2CFA889EA
:10044000B9898C9185FFEDCFCE010E94A101E7CF44
:10045000DF91CF91089580E090E0892B29F00E94F0
:10046000970181110C940000089585ED8093BC00E4
:100470008091BC0084FDFCCF1092D9010895409179
:100480009001262F30E0240F311D21323105DCF49C
:100490002091D9012430C9F4FC0180E090E0861756
:1004A00058F4309190012191DC01A059BE4FA30F67
:1004B000B11D2C930196F3CF80919001680F60934A
:1004C000900180E0089581E0089582E00895089504
:1004D000E091DD018091DC01E81730F4F0E0E25BAF
:1004E000FE4F808190E008958FEF9FEF08959091E7
:1004F000DD018091DC01981750F4E92FF0E0E25B18
:10050000FE4F208130E09F5F9093DD0102C02FEF0E
:100510003FEFC90108958AE892E00E947702909324
:1005200001018093000108958091DC0190E0209109
:10053000DD01821B91090895CF93DF9300D0CDB7E1
:10054000DEB7CB01642F49835A830E943F02498161
:10055000842F5A81952F0F900F90DF91CF9108959E
:10056000CF93DF931F92CDB7DEB7698361E0CE01F1
:1005700001960E943F0281E090E00F90DF91CF91C1
:100580000895089580E090E0089561E08DE20E9472
:10059000AD0061E085E20E94AD0061E087E20E946B
:1005A000AD0061E083E30E94AD0061E089E20E945A
:1005B000AD0061E08BE20E94AD0061E083E00E944B
:1005C000AD0061E082E00E94AD0061E084E00E9445
:1005D000AD0061E085E00C94AD00CF93DF93009710
:1005E00079F0FC0101900020E9F73197AF01481B39
:1005F000590BBC018DEE91E00E94F900EC0102C0A4
:10060000C0E0D0E042E050E066E271E08DEE91E0C3
:100610000E94F9008C0F9D1FDF91CF9108950E94D9
:10062000FC061F920F920FB60F9211242F933F9347
:100630008F939F93AF93BF938091E9019091EA01CB
:10064000A091EB01B091EC013091E80123E0230F80
:100650002D3720F40196A11DB11D05C026E8230FFA
:100660000296A11DB11D2093E8018093E9019093AA
:10067000EA01A093EB01B093EC018091E401909129
:10068000E501A091E601B091E7010196A11DB11D20
:100690008093E4019093E501A093E601B093E70114
:1006A000BF91AF919F918F913F912F910F900FBE6E
:1006B0000F901F9018951F920F920FB60F92112452
:1006C0002F933F934F935F936F937F938F939F935A
:1006D000AF93BF93EF93FF938DEE91E00E94A10142
:1006E000FF91EF91BF91AF919F918F917F916F910A
:1006F0005F914F913F912F910F900FBE0F901F90E0
:1007000018951F920F920FB60F9211242F938F936B
:100710009F93EF93FF93E091FD01F091FE018081A3
:10072000E0910302F091040282FD12C09081809159
:1007300006028F5F8F7320910702821751F0E091BC
:100740000602F0E0E351FE4F958F8093060201C050
:100750008081FF91EF919F918F912F910F900FBE0C
:100760000F901F9018951F920F920FB60F921124A1
:100770002F933F934F935F936F937F938F939F93A9
:10078000AF93BF93EF93FF938091B900887F80363A
:1007900009F49CC068F5883209F45BC090F480319C
:1007A00009F454C038F4882309F4F6C0883009F4F9
:1007B0004DC0F6C0883109F44CC0803209F45DC0E8
:1007C000EFC0803409F468C048F4803309F455C0A0
:1007D000883309F0E5C08093B301D8C0803509F4AF
:1007E0004FC0883509F45DC0883409F0D9C0D6C03F
:1007F000883909F4C7C0A8F4883709F467C038F409
:10080000883609F463C0803709F460C0C9C08838ED
:1008100009F4B8C0803909F45FC0803809F0C0C05D
:100820005BC0803B09F486C038F4803A09F466C0A6
:10083000883A09F47FC0B4C0803C09F4A7C0883C62
:1008400009F4A4C0883B09F48AC0AAC08091D601EB
:1008500010C09091D5018091D401981770F5E09166
:10086000D50181E08E0F8093D501F0E0EC54FE4F6E
:1008700080818093BB0085EC86C08093B3018EC0DD
:10088000E091D50181E08E0F8093D5018091BB006E
:10089000F0E0EC54FE4F80839091D5018091D4011B
:1008A0006EC0E091D50181E08E0F8093D5018091DB
:1008B000BB00F0E0EC54FE4F80838091D8018111A1
:1008C0006DC081E08093D70184EA61C083E08093AA
:1008D000D9011092B201CFCF8091B201803208F0DD
:1008E00051C0E091B20181E08E0F8093B2018091FE
:1008F000BB00F0E0EE56FE4F8083BDCF85EC8093C9
:10090000BC001092D9018091B201803230F4E091A4
:10091000B201F0E0EE56FE4F10826091B20170E03D
:10092000E091DE01F091DF0182E991E009951092FA
:10093000B20136C084E08093D901109291011092E7
:100940009001E091E001F091E10109958091900121
:10095000811105C081E08093900110927001E091B7
:10096000910181E08E0F80939101F0E0E059FE4FFC
:1009700080818093BB0090919101809190019817A4
:1009800008F479CF85E88093BC000AC085EC809399
:10099000BC001092D90104C01092B3010E9435022C
:1009A000FF91EF91BF91AF919F918F917F916F9147
:1009B0005F914F913F912F910F900FBE0F901F901D
:1009C0001895EDEEF1E01382128288EE93E0A0E03C
:1009D000B0E084839583A683B78326E031E031833A
:1009E000208325EC30E03587248724EC30E03787FE
:1009F000268720EC30E0318B208B21EC30E0338BEC
:100A0000228B22EC30E0358B248B26EC30E0378BC8
:100A1000268B118E128E138E148EEAE8F2E013826A
:100A2000128284839583A683B78388E191E09183C2
:100A300080830895789484B5826084BD84B5816094
:100A400084BD85B5826085BD85B5816085BD809199
:100A50006E00816080936E00109281008091810011
:100A60008260809381008091810081608093810009
:100A7000809180008160809380008091B1008460CB
:100A80008093B1008091B00081608093B00080912C
:100A90007A00846080937A0080917A0082608093EB
:100AA0007A0080917A00816080937A0080917A0048
:100AB000806880937A001092C10080E18093BA0030
:100AC00084E291E09093E1018093E00180E391E082
:100AD0009093DF018093DE011092DD011092DC0122
:100AE0001092DB011092DA011092D90181E080931B
:100AF000D8011092D70161E082E10E94AD0061E06F
:100B000083E10E94AD008091B9008E7F8093B9008F
:100B10008091B9008D7F8093B90088E48093B800FC
:100B200085E48093BC008BE892E09093E30180938E
:100B3000E201E091FD01F091FE0182E08083E0910D
:100B4000F901F091FA011082E091FB01F091FC01B2
:100B50008FEC808310920502E0910102F091020275
:100B600086E08083E091FF01F09100028081806146
:100B70008083E091FF01F091000280818860808392
:100B8000E091FF01F0910002808180688083E09114
:100B9000FF01F091000280818F7D80838DE20E94B1
:100BA0008E0085E20E948E0083E30E948E0089E21F
:100BB0000E948E008BE20E948E0083E00E948E00D5
:100BC00082E00E948E0084E00E948E0085E00E94F8
:100BD0008E0087E20E948E00E0910001F0910101F9
:100BE000E730F10508F0FDC0EC5CFF4F0C94F60611
:100BF0000E94C50289E291E02AC060E08DE20E9475
:100C0000AD0060E085E20E94AD0061E087E20E94F5
:100C1000AD0061E083E30E94AD0061E089E20E94E3
:100C2000AD0061E08BE20E94AD0060E083E00E94D5
:100C3000AD0061E082E00E94AD0061E084E00E94CE
:100C4000AD0061E085E00E94AD0082E391E00E948A
:100C5000ED02C9C060E08DE20E94AD0060E085E277
:100C60000E94AD0061E087E20E94AD0061E083E395
:100C70000E94AD0061E089E20E94AD0061E08BE27C
:100C80000E94AD0060E083E00E94AD0060E082E081
:100C90000E94AD0061E084E00E94AD0061E085E06B
:100CA0000E94AD008BE391E0D2CF61E08DE20E9423
:100CB000AD0061E085E20E94AD0060E087E20E9445
:100CC000AD0061E083E30E94AD0061E089E20E9433
:100CD000AD0061E08BE20E94AD0061E083E00E9424
:100CE000AD0061E082E00E94AD0061E084E00E941E
:100CF000AD0061E085E00E94AD0084E491E0A7CF03
:100D000061E08DE20E94AD0060E085E20E94AD00EE
:100D100061E087E20E94AD0061E083E30E94AD00E4
:100D200061E089E20E94AD0061E08BE20E94AD00CB
:100D300061E083E00E94AD0061E082E00E94AD00CE
:100D400061E021C061E08DE20E94AD0061E085E2DA
:100D50000E94AD0061E087E20E94AD0060E083E3A5
:100D60000E94AD0060E089E20E94AD0061E08BE28C
:100D70000E94AD0061E083E00E94AD0061E082E08E
:100D80000E94AD0060E084E00E94AD0061E025C0FB
:100D900061E08DE20E94AD0061E085E20E94AD005D
:100DA00061E087E20E94AD0060E083E30E94AD0055
:100DB00061E089E20E94AD0060E08BE20E94AD003C
:100DC00061E083E00E94AD0061E082E00E94AD003E
:100DD00061E084E00E94AD0060E085E00E94AD002B
:100DE00002C00E94C5020E942B02F6CEEE0FFF1F2A
:100DF0000590F491E02D099481E090E0F8940C9432
:060E00000107F894FFCF8A
:100E0600010000000000C201F9005A0109028B012D
:100E160069017D0100000000B0029C02C202670267
:100E26009402770268020D0A0045737461646F20AC
:100E3600300045737461646F2031004573746164DA
:0E0E46006F20320045737461646F203300002A
:00000001FF
