:100000000C9458000C9480000C9480000C94800098
:100010000C9480000C9480000C9480000C94800060
:100020000C9480000C9480000C9480000C94800050
:100030000C9480000C9480000C9480000C94800040
:100040000C947D020C9480000C9480000C94800031
:100050000C9480000C9480000C9480000C94800020
:100060000C94C7020C9480000000000025002800BA
:100070002B00040404040404040402020202020229
:10008000030303030303010204081020408001025C
:1000900004081020010204081020000000080002DB
:1000A0000100000304070000000000000000A0049D
:1000B00011241FBECFEFD8E0DEBFCDBF11E0A0E01E
:1000C000B1E0ECE7F9E002C005900D92A231B10772
:1000D000D9F721E0A2E1B1E001C01D92A13EB20733
:1000E000E1F710E0C8E5D0E004C02197FE010E94CE
:1000F000B104C735D107C9F70E94F5030C94BC04BD
:100100000C94000090E0FC01E656FF4F2491FC01A6
:10011000EA57FF4F3491FC01EE58FF4FE491EE2374
:10012000B1F1222339F1233091F038F42130A9F0D4
:10013000223001F584B58F7D12C0273091F0283030
:10014000A1F02430B9F4809180008F7D03C08091AC
:1001500080008F77809380000DC084B58F7784BD39
:1001600009C08091B0008F7703C08091B0008F7D6F
:100170008093B000F0E0EE0FFF1FE859FF4FA5910C
:10018000B4918FB7F894EC913E2B3C938FBF0895B8
:100190003FB7F8948091DD019091DE01A091DF01DD
:1001A000B091E00126B5A89B05C02F3F19F001963C
:1001B000A11DB11D3FBFBA2FA92F982F8827820FED
:1001C000911DA11DB11DBC01CD0142E0660F771F3D
:1001D000881F991F4A95D1F70895CF92DF92EF9229
:1001E000FF920F931F93CF93DF936C017A018B01E2
:1001F000C0E0D0E0CE15DF0589F0D8016D918D010A
:10020000D601ED91FC910190F081E02DC601099598
:10021000892B11F47E0102C02196ECCFC701DF913A
:10022000CF911F910F91FF90EF90DF90CF900895A5
:10023000E091CA01F091CB01309729F01092C301EF
:100240001092C20109940895CF93DF93AC01E0911D
:100250005601F09157013097F1F09091C5018091CE
:10026000C4019817C0F090E0292F30E02617370717
:1002700054F4D901AA5CBE4FEA01C20FD31F888192
:100280008C939F5FF1CF1092C5016093C401CB01A5
:10029000DF91CF910994DF91CF91089585ED8093FF
:1002A000BC008091BC0084FDFCCF1092C101089578
:1002B00040917801262F30E0240F311D2132310585
:1002C000DCF42091C1012430C9F4FC0180E090E00D
:1002D000861758F4309178012191DC01A85ABE4F5D
:1002E000A30FB11D2C930196F3CF80917801680F75
:1002F0006093780180E0089581E0089582E0089598
:100300000895E091C5018091C401E81730F4F0E050
:10031000EA5CFE4F808190E008958FEF9FEF089593
:100320009091C5018091C401981750F4E92FF0E035
:10033000EA5CFE4F208130E09F5F9093C50102C0D0
:100340002FEF3FEFC90108958091C40190E0209103
:10035000C501821B91090895CF92DF92EF92FF921F
:100360000F931F93CF93DF937C01262F972F8A0142
:1003700080913501882391F0C62FD72F6E01C40ECE
:10038000D51ECC15DD0571F06991D701ED91FC9179
:100390000190F081E02DC7010995F3CF642F822FE2
:1003A0000E945801C801DF91CF911F910F91FF90DA
:1003B000EF90DF90CF900895CF93DF931F92CDB74A
:1003C000DEB76983209135012223D1F02091C2014B
:1003D000203240F021E030E0FC013383228380E0D2
:1003E00090E015C08091C301E82FF0E0EB5EFE4F76
:1003F000998190838F5F8093C3018093C20105C070
:1004000061E0CE0101960E94580181E090E00F90DA
:10041000DF91CF910895089580E090E00895CF9303
:10042000DF9381E080933501809312011092C30124
:100430001092C201C0911301D09114016C2F8CEC69
:1004400091E00E94DC012196D0931401C093130126
:100450008091C201813208F045C09091C101911193
:10046000FCCF92E09093C10191E09093C0019FEF87
:1004700090939B011092BD018093BC01A5E1B1E076
:100480002CE931E0F9019E2F921B981718F49D91E9
:100490009193F9CF1092BE018091BE01826080934A
:1004A000BE018091BF01813061F41092BF01809143
:1004B000BE018093BB008091BC0083FDF8CF85EC2A
:1004C00001C085EE8093BC008091C1018230E1F3D0
:1004D00080919B018F3F31F080919B01803211F020
:1004E00080919B011092C3011092C20110923501BC
:1004F000DF91CF9108950E94B7041F920F920FB61B
:100500000F9211242F933F938F939F93AF93BF9399
:100510008091D9019091DA01A091DB01B091DC01C9
:100520003091D80123E0230F2D3720F40196A11D2F
:10053000B11D05C026E8230F0296A11DB11D209311
:10054000D8018093D9019093DA01A093DB01B09395
:10055000DC018091DD019091DE01A091DF01B0917D
:10056000E0010196A11DB11D8093DD019093DE0194
:10057000A093DF01B093E001BF91AF919F918F9164
:100580003F912F910F900FBE0F901F9018951F92C3
:100590000F920FB60F9211242F933F934F935F93B7
:1005A0006F937F938F939F93AF93BF93EF93FF933B
:1005B0008091B900887F803609F49CC068F5883244
:1005C00009F45BC090F4803109F454C038F48823F6
:1005D00009F4F6C0883009F44DC0F6C0883109F43A
:1005E0004CC0803209F45DC0EFC0803409F468C0AB
:1005F00048F4803309F455C0883309F0E5C080938E
:100600009B01D8C0803509F44FC0883509F45DC01E
:10061000883409F0D9C0D6C0883909F4C7C0A8F415
:10062000883709F467C038F4883609F463C0803726
:1006300009F460C0C9C0883809F4B8C0803909F429
:100640005FC0803809F0C0C05BC0803B09F486C041
:1006500038F4803A09F466C0883A09F47FC0B4C01F
:10066000803C09F4A7C0883C09F4A4C0883B09F485
:100670008AC0AAC08091BE0110C09091BD01809136
:10068000BC01981770F5E091BD0181E08E0F809359
:10069000BD01F0E0E456FE4F80818093BB0085EC05
:1006A00086C080939B018EC0E091BD0181E08E0FDA
:1006B0008093BD018091BB00F0E0E456FE4F808343
:1006C0009091BD018091BC016EC0E091BD0181E0BF
:1006D0008E0F8093BD018091BB00F0E0E456FE4F89
:1006E00080838091C00181116DC081E08093BF0142
:1006F00084EA61C083E08093C10110929A01CFCF58
:1007000080919A01803208F051C0E0919A0181E015
:100710008E0F80939A018091BB00F0E0E658FE4F67
:100720008083BDCF85EC8093BC001092C101809185
:100730009A01803230F4E0919A01F0E0E658FE4FE1
:10074000108260919A0170E0E091C601F091C701BA
:100750008AE791E0099510929A0136C084E080936F
:10076000C1011092790110927801E091C801F091D5
:10077000C901099580917801811105C081E08093BC
:10078000780110925801E091790181E08E0F8093F9
:100790007901F0E0E85AFE4F80818093BB00909190
:1007A000790180917801981708F479CF85E88093D2
:1007B000BC000AC085EC8093BC001092C10104C04B
:1007C00010929B010E944E01FF91EF91BF91AF915A
:1007D0009F918F917F916F915F914F913F912F9159
:1007E0000F900FBE0F901F901895789484B582607B
:1007F00084BD84B5816084BD85B5826085BD85B5C5
:10080000816085BD80916E00816080936E00109242
:1008100081008091810082608093810080918100BD
:10082000816080938100809180008160809380004E
:100830008091B10084608093B1008091B0008160AC
:100840008093B00080917A00846080937A008091D8
:100850007A00826080937A0080917A008160809330
:100860007A0080917A00806880937A001092C100AB
:1008700082E08093BA0088E191E09093C90180936F
:10088000C80184E291E09093C7018093C601109261
:10089000C5011092C4011092C3011092C2011092BE
:1008A000C10181E08093C0011092BF0182E10E94EA
:1008B000820083E10E9482008091B9008E7F809344
:1008C000B9008091B9008D7F8093B90088E480934E
:1008D000B80085E48093BC00C0E0D0E00FE012E0F7
:1008E0000E94C8004B015C0180EDC82E87E0D82E25
:1008F000E12CF12C0E94C800DC01CB018819990978
:10090000AA09BB09883E9340A105B10558F021E032
:10091000C21AD108E108F10888EE880E83E0981E1B
:10092000A11CB11CC114D104E104F10419F7109306
:10093000CB010093CA01209799F20E940000D0CF0A
:10094000ECECF1E01382128288EE93E0A0E0B0E0DC
:1009500084839583A683B78384E091E09183808329
:100960000895EE0FFF1F0590F491E02D099481E0AA
:0C09700090E0F8940C94BC04F894FFCFC5
:10097C0000000000DC01AC010C028001A40190011C
:02098C008101E7
:00000001FF
