:100000000C9469000C9491000C9491000C94910054
:100010000C9491000C9491000C9491000C9491001C
:100020000C9491000C9491000C9491000C9491000C
:100030000C9491000C9491000C9491000C949100FC
:100040000C9481020C9491000C94F1020C94CB025C
:100050000C9491000C9491000C9491000C949100DC
:100060000C9423030C949100980A9D0AB30AC30AC6
:10007000CE0AE40AED0A0000000023002600290051
:100080000000000800020100000304070000000057
:100090000000000000000000250028002B000000E8
:1000A0000000240027002A000404040404040404BB
:1000B0000202020202020303030303030102040813
:1000C00010204080010204081020010204081020C2
:1000D0003A0B11241FBECFEFD8E0DEBFCDBF11E039
:1000E000A0E0B1E0E0E6FCE102C005900D92A2388C
:1000F000B107D9F723E0A2E8B1E001C01D92AA360A
:10010000B207E1F710E0C9E6D0E004C02197FE0194
:100110000E94230EC836D107C9F70E9466090C94C5
:100120002E0E0C940000CF92DF92EF92FF920F936D
:100130001F93CF93DF936C017A018B01C0E0D0E075
:10014000CE15DF0589F0D8016D918D01D601ED91B5
:10015000FC910190F081E02DC6010995892B11F4E5
:100160007E0102C02196ECCFC701DF91CF911F9194
:100170000F91FF90EF90DF90CF900895FC01538D89
:10018000448D252F30E0842F90E0821B930B541771
:1001900010F0CF96089501970895FC01918D828DFE
:1001A000981761F0828DDF01A80FB11D5D968C91CB
:1001B000928D9F5F9F73928F90E008958FEF9FEFD6
:1001C0000895FC01918D828D981731F0828DE80F92
:1001D000F11D858D90E008958FEF9FEF0895FC014C
:1001E000918D228D892F90E0805C9F4F821B910919
:1001F0008F739927089587E492E00E94EF0021E031
:10020000892B09F420E0822F0895FC01848DDF0101
:10021000A80FB11DA35ABF4F2C91848D90E0019679
:100220008F739927848FA689B7892C93A089B18968
:100230008C9180648C93938D848D981306C0028872
:10024000F389E02D80818F7D80830895EF92FF9266
:100250000F931F93CF93DF93EC0181E0888F9B8DE9
:100260008C8D981305C0E889F989808185FD24C0AB
:10027000F62E0B8D10E00F5F1F4F0F731127E02E2E
:100280008C8DE8120CC00FB607FCFACFE889F9890B
:10029000808185FFF5CFCE010E940501F1CF8B8DC6
:1002A000FE01E80FF11DE35AFF4FF0820B8FEA8940
:1002B000FB898081806207C0EE89FF896083E889BD
:1002C000F98980818064808381E090E0DF91CF9123
:1002D0001F910F91FF90EF900895CF93DF93EC0162
:1002E000888D8823C9F0EA89FB89808185FD05C056
:1002F000A889B9898C9186FD0FC00FB607FCF5CF90
:10030000808185FFF2CFA889B9898C9185FFEDCFD7
:10031000CE010E940501E7CFDF91CF91089580E0E3
:1003200090E0892B29F00E94FB0081110C940000C1
:10033000089585ED8093BC008091BC0084FDFCCFC6
:100340001092210208954091A401262F30E0240F3D
:10035000311D21323105DCF4209121022430C9F411
:10036000FC0180E090E0861758F43091A4012191BF
:10037000DC01AE57BE4FA30FB11D2C930196F3CFF6
:100380008091A401680F6093A40180E0089581E04A
:10039000089582E008950895E09123028091220259
:1003A000E81730F4F0E0EC5DFD4F808190E00895B7
:1003B0008FEF9FEF0895909123028091220298176A
:1003C00050F4E92FF0E0EC5DFD4F208130E09F5FBD
:1003D0009093230202C02FEF3FEFC901089580914F
:1003E000220290E020912302821B91090895CF926E
:1003F000DF92EF92FF920F931F93CF93DF937C01D5
:10040000262F972F8A0180914602882391F0C62FCC
:10041000D72F6E01C40ED51ECC15DD0571F0699184
:10042000D701ED91FC910190F081E02DC701099574
:10043000F3CF642F822F0E94A301C801DF91CF91D7
:100440001F910F91FF90EF90DF90CF900895CF9381
:10045000DF931F92CDB7DEB7698320914602222336
:10046000D1F020914402203240F021E030E0FC0144
:100470003383228380E090E015C080914502E82F0D
:10048000F0E0E552FE4F998190838F5F80934502A3
:100490008093440205C061E0CE0101960E94A30151
:1004A00081E090E00F90DF91CF910895089580E072
:1004B00090E008950E94290E3FB7F8948091D701EB
:1004C0009091D801A091D901B091DA0126B5A89BED
:1004D00005C02F3F19F00196A11DB11D3FBFBA2FD6
:1004E000A92F982F8827820F911DA11DB11DBC0136
:1004F000CD0142E0660F771F881F991F4A95D1F7FB
:1005000008951F920F920FB60F9211242F933F93CD
:100510008F939F93AF93BF938091D3019091D40118
:10052000A091D501B091D6013091D20123E0230FE3
:100530002D3720F40196A11DB11D05C026E8230F1B
:100540000296A11DB11D2093D2018093D3019093F7
:10055000D401A093D501B093D6018091D701909199
:10056000D801A091D901B091DA010196A11DB11D68
:100570008093D7019093D801A093D901B093DA0169
:10058000BF91AF919F918F913F912F910F900FBE8F
:100590000F901F9018951F920F920FB60F92112473
:1005A0002F933F934F935F936F937F938F939F937B
:1005B000AF93BF93EF93FF9387E492E00E9405010E
:1005C000FF91EF91BF91AF919F918F917F916F912B
:1005D0005F914F913F912F910F900FBE0F901F9001
:1005E00018951F920F920FB60F9211242F938F938D
:1005F0009F93EF93FF93E0915702F091580280810F
:10060000E0915D02F0915E0282FD12C090818091C6
:1006100060028F5F8F7320916102821751F0E09129
:100620006002F0E0E95BFD4F958F8093600201C0AE
:100630008081FF91EF919F918F912F910F900FBE2D
:100640000F901F9018951F920F920FB60F921124C2
:100650002F933F934F935F936F937F938F939F93CA
:10066000AF93BF93EF93FF938091B900887F80365B
:1006700009F49CC068F5883209F45BC090F48031BD
:1006800009F454C038F4882309F4F6C0883009F41A
:100690004DC0F6C0883109F44CC0803209F45DC009
:1006A000EFC0803409F468C048F4803309F455C0C1
:1006B000883309F0E5C080931F02D8C0803509F463
:1006C0004FC0883509F45DC0883409F0D9C0D6C060
:1006D000883909F4C7C0A8F4883709F467C038F42A
:1006E000883609F463C0803709F460C0C9C088380F
:1006F00009F4B8C0803909F45FC0803809F0C0C07F
:100700005BC0803B09F486C038F4803A09F466C0C7
:10071000883A09F47FC0B4C0803C09F4A7C0883C83
:1007200009F4A4C0883B09F48AC0AAC080911C02C5
:1007300010C090911E0280911D02981770F5E091F3
:100740001E0281E08E0F80931E02F0E0E550FE4F06
:1007500080818093BB0085EC86C080931F028EC091
:10076000E0911E0281E08E0F80931E028091BB00FB
:10077000F0E0E550FE4F808390911E0280911D02B3
:100780006EC0E0911E0281E08E0F80931E02809168
:10079000BB00F0E0E550FE4F808380912002811184
:1007A0006DC081E080931B0284EA61C083E0809386
:1007B00021021092C801CFCF8091C801803208F089
:1007C00051C0E091C80181E08E0F8093C8018091F3
:1007D000BB00F0E0E855FE4F8083BDCF85EC8093F1
:1007E000BC00109221028091C801803230F4E09167
:1007F000C801F0E0E855FE4F10826091C80170E03A
:10080000E091A601F091A70188EA91E00995109284
:10081000C80136C084E0809321021092A501109295
:10082000A401E091A201F091A30109958091A40196
:10083000811105C081E08093A40110928201E091B2
:10084000A50181E08E0F8093A501F0E0EE57FE4FE9
:1008500080818093BB009091A5018091A40198179D
:1008600008F479CF85E88093BC000AC085EC8093BA
:10087000BC001092210204C010921F020E94990134
:10088000FF91EF91BF91AF919F918F917F916F9168
:100890005F914F913F912F910F900FBE0F901F903E
:1008A0001895833081F028F4813099F08230A1F0DE
:1008B00008958730A9F08830B9F08430D1F4809160
:1008C00080008F7D03C0809180008F7780938000AF
:1008D000089584B58F7702C084B58F7D84BD089557
:1008E0008091B0008F7703C08091B0008F7D80939E
:1008F000B0000895682F84EE92E00C942702809156
:1009000021028111FCCF81E080932102809320029B
:100910009FEF90931F0210921E0210921D0280936F
:100920001C0280911C028A6180931C0280911B0230
:10093000813061F410921B0280911C028093BB00F5
:100940008091BC0083FDF8CF85EC01C085EE8093DB
:10095000BC00809121028130E1F380911E0281115F
:1009600003C080911E0201C081E0ABEFB1E024E240
:1009700032E0F9019E2F921B981718F49D919193E4
:10098000F9CF10922302809322020895CF93DF9330
:1009900090E0FC01E454FF4F2491FC01E855FF4F27
:1009A00084918823C1F090E0880F991FFC01E256E2
:1009B000FF4FC591D491FC01EC56FF4FA591B49126
:1009C0009FB7F8948881E22FE0958E2388838C91DD
:1009D000E823EC939FBFDF91CF91089591E090932E
:1009E00046028093690310924502109244020895D2
:1009F0002091440290916903213208F04AC080910D
:100A000021028111FCCF32E03093210231E030939A
:100A100020023FEF30931F0210921E0220931D020E
:100A2000ABEDB1E04BEF51E0FA013E2F341B321732
:100A300018F43D913193F9CF10921C0220911C02C1
:100A4000990F922B90931C0290911B02913061F4AC
:100A500010921B0290911C029093BB009091BC00DD
:100A600093FDF8CF95EC01C095EE9093BC0090916A
:100A700021029230E1F390911F029F3F79F0809123
:100A80001F02803241F080911F02803331F084E0F8
:100A900005C081E003C082E001C083E010924502FE
:100AA00010924402109246020895CF93DF931F9252
:100AB000CDB7DEB7682F8DE069830E94EE0480EB2E
:100AC00090E00E947A04698184EE92E00E942702FD
:100AD0000F90DF91CF910C94F804CF93DF931F9286
:100AE000CDB7DEB7682F8DE069830E94EE0480E801
:100AF00090E00E947A04698184EE92E00E942702CD
:100B00000F90DF91CF910C94F804009769F0FC01ED
:100B100001900020E9F73197AF01481B590BBC0148
:100B200087E492E00C94930080E090E00895CF93E6
:100B3000DF930E948505EC018EE791E00E94850518
:100B40008C0F9D1FDF91CF910895CF93DF93282FB6
:100B500030E0F901E058FF4F8491F901E454FF4F70
:100B6000D491F901E855FF4FC491CC2391F0811144
:100B70000E945104EC2FF0E0EE0FFF1FEA58FF4FE8
:100B8000A591B491EC91ED2381E090E021F480E017
:100B900002C080E090E0DF91CF9108951F93CF9342
:100BA000DF93282F30E0F901E058FF4F8491F901DD
:100BB000E454FF4FD491F901E855FF4FC491CC2381
:100BC000C9F0162F81110E945104EC2FF0E0EE0FB6
:100BD000FF1FEC56FF4FA591B4918FB7F8941111F8
:100BE00005C09C91ED2FE095E92302C0EC91ED2B1F
:100BF000EC938FBFDF91CF911F9108958F929F92B9
:100C0000AF92BF92CF92DF92EF92FF926B017C0185
:100C10000E945C024B015C01C114D104E104F104A7
:100C2000F1F00E945C02DC01CB0188199909AA0944
:100C3000BB09883E9340A105B10570F321E0C21ABB
:100C4000D108E108F10888EE880E83E0981EA11C07
:100C5000B11CC114D104E104F10419F7DDCFFF90F8
:100C6000EF90DF90CF90BF90AF909F908F900895BE
:100C70000E947F049091220280912302981749F0EC
:100C800084EE92E00E94DB019093F9028093F802D7
:100C9000F1CF6AE070E080E090E00C94FE052F92C6
:100CA0003F924F925F926F927F928F929F92AF92FC
:100CB000BF92CF92DF92EF92FF920F931F93CF9349
:100CC000DF9300D0CDB7DEB78FE80E9455050E94B4
:100CD00038068091F8029091F902827099279093DA
:100CE0000D0380930C0364E0862E912CA12CB12C73
:100CF00080910C0390910D03029709F037C1109277
:100D0000F1021092F0028091F0029091F102843091
:100D1000910574F7880F991FFC01E650FD4F808103
:100D20000E9455056AE070E080E090E00E94FE05B8
:100D30000E947F0490912202809123020091F00290
:100D40001091F102981769F084EE92E00E94DB01A5
:100D50009801220F331F2E5F3C4FF901918380834E
:100D6000E9CF0330110509F0F7C080E30E946D055B
:100D700030900203212C60910403709105036229D5
:100D8000732970931F0360931E03F0910603FA8387
:100D90001982009108031091090329813A81022BDD
:100DA000132B1093210300932003072E000C880BB4
:100DB000990B0E947A0C2B013C01B801110F880B92
:100DC000990B0E947A0C6B017C01A3019201C30173
:100DD000B2010E94060D2B013C01A7019601C7013B
:100DE000B6010E94060D9B01AC01C301B2010E9435
:100DF000D60B0E94420C60932203709323038093CE
:100E0000240390932503E090F202F090F3020E94F5
:100E10007A0C0E94790D8701000F111F0A5D1C4F8B
:100E20000E94490CF8017183608387010F5F1F4F97
:100E30001093F3020093F2020330110509F08CC005
:100E40008FE80E9455050E9438068091F802909123
:100E5000F9028470992790930B0380930A030497F7
:100E600009F07AC02091F4023091F502F901EE0FF9
:100E7000FF1FEE0FFF1FE45DFC4F409128035091D0
:100E800029038091260390912703840F951F409199
:100E90002A0350912B03840F951FB8010E94CE0D99
:100EA000CB01A0E0B0E080839183A283B383109252
:100EB0000D0310920C031092F3021092F2022430F0
:100EC000310509F040C040913003509131036091E9
:100ED0003203709133038091340390913503A091D4
:100EE0003603B0913703480F591F6A1F7B1F80914B
:100EF000380390913903A0913A03B0913B03480F16
:100F0000591F6A1F7B1F80913C0390913D03A09164
:100F10003E03B0913F038A019B01080F191F2A1F4E
:100F20003B1FC901B801A50194010E94040E209342
:100F30004003309341034093420350934303109284
:100F4000F5021092F4028091F4029091F50201965C
:100F50009093F5028093F4028091F0029091F10257
:100F600001969093F1028093F002CDCE0F900F90F6
:100F7000DF91CF911F910F91FF90EF90DF90CF9075
:100F8000BF90AF909F908F907F906F905F904F90A9
:100F90003F902F900895CF92DF92EF92FF920F93A0
:100FA0001F93CF93DF93DBE714E10EE28CE5F82E7D
:100FB0009FE8E92EC2E08091F6029091F7028A3014
:100FC00091050CF0F7C09C01297F232B19F008979D
:100FD00009F0AFC0D09316031093170300931803C2
:100FE0008DE00E94EE0482E890E00E947A04609115
:100FF000180384EE92E00E9427020E94F8048DE01C
:101000000E94EE0483E890E00E947A046091170346
:1010100084EE92E00E9427020E94F8048DE00E9474
:10102000EE0484E890E00E947A046091160384EE56
:1010300092E00E9427020E94F804F0921903E092C5
:101040001A03C0931B038DE00E94EE0485E890E034
:101050000E947A0460911B0384EE92E00E942702B2
:101060000E94F8048DE00E94EE0486E890E00E9461
:101070007A0460911A0384EE92E00E9427020E9493
:10108000F8048DE00E94EE0487E890E00E947A0464
:101090006091190384EE92E00E9427020E94F804F6
:1010A000C0931C0310921D038DE00E94EE0488E89B
:1010B00090E00E947A0460911D0384EE92E00E9409
:1010C00027020E94F8048DE00E94EE0489E890E077
:1010D0000E947A0460911C0384EE92E00E94270231
:1010E0000E94F8048DE00E94EE048BE890E00E94DC
:1010F0007A046091460384EE92E00E9427020E94E7
:10110000F80480EB0E946D0581E00E946D0580E18E
:101110000E946D0580E20E946D056AE070E080E04B
:1011200090E00E94FE056EE070E080E090E00E949A
:10113000FE058091F6029091F7020197A1F461E01B
:1011400086E00E94CE050E944F068DE00E94EE04CC
:1011500081E890E00E947A0461E084EE92E00E94CF
:1011600027020E94F8048091F6029091F7029C01F8
:101170002B7F2330310511F0059731F460E086E0D4
:101180000E94CE050E944F068091F6029091F702D0
:10119000099731F460E086E00E94CE050E944F0678
:1011A0008091F6029091F70201969093F702809356
:1011B000F60201CF60914003709141038091420398
:1011C000909143030E947A0C6B017C01209155039E
:1011D0003091560340915703509158030E94060DD9
:1011E00020E038E849E256E40E94D60B0E94420C07
:1011F0006093490370934A0380934B0390934C038D
:101200006E3121E07207810591058CF4209159031C
:1012100030915A0340915B0350915C03C701B601C2
:101220000E94060D20E03CEF4DEB56E432C08B01EE
:101230009C010F51114021093109043C1105210580
:10124000310588F420915D0330915E0340915F0386
:1012500050916003C701B6010E94060D20E030EAFC
:1012600047E556E416C06B3E22E072078105910502
:10127000A4F0209161033091620340916303509187
:101280006403C701B6010E94060D20E038E646EC73
:1012900055E40E94D60B0E94420C60934D0370935C
:1012A0004E0380934F039093500360914D037091D0
:1012B0004E0380914F0390915003DF91CF911F9186
:1012C0000F91FF90EF90DF90CF900895CF93DF9331
:1012D000CDB7DEB7A1970FB6F894DEBF0FBECDBF76
:1012E000789484B5826084BD84B5816084BD85B501
:1012F000826085BD85B5816085BD80916E0081600D
:1013000080936E00109281008091810082608093B2
:1013100081008091810081608093810080918000B4
:101320008160809380008091B10084608093B100DF
:101330008091B00081608093B00080917A008460D9
:1013400080937A0080917A00826080937A00809105
:101350007A00816080937A0080917A00806880931F
:101360007A001092C1001092230210922202109271
:101370004502109244021092210281E080932002E3
:1013800010921B0261E082E10E94CE0561E083E1E0
:101390000E94CE058091B9008E7F8093B900809124
:1013A000B9008D7F8093B90088E48093B80085E40C
:1013B0008093BC00E0915702F091580282E0808354
:1013C000E0915302F09154021082E0915502F091A5
:1013D00056028FEC808310925F02E0915B02F091E5
:1013E0005C0286E08083E0915902F0915A0280818C
:1013F00080618083E0915902F0915A028081886077
:101400008083E0915902F0915A0280818068808344
:10141000E0915902F0915A0280818F7D808386E0AD
:101420000E94C60485E00E94C60484E00E94C604AF
:1014300083E00E94C60411E0CC24C394D12C93E035
:10144000292E312C80916503909166031816190698
:1014500094F00E94CB0780904D0390904E03A09093
:101460004F03B09050038092510390925203A09288
:101470005303B092540380EE881681E098061CF462
:101480001093CE0102C01092CE018091650390911D
:1014900066031816190694F00E94CB0740904D037E
:1014A00050904E0360904F03709050034092510350
:1014B00050925203609253037092540394EC491675
:1014C00099E059061CF41093CB0102C01092CB0195
:1014D00086E00E94A50521E0892B09F420E02093F5
:1014E000CD0185E00E94A50521E0892B09F420E0CB
:1014F0002093CC0184E00E94A50521E0892B09F40A
:1015000020E02093CA0183E00E94A50521E0892BF9
:1015100009F420E02093C901E091D001F091D101BC
:10152000E730F10508F060C0EC5CFF4F0C94230E2F
:101530008CE291E00E94970521C085E391E00E9432
:1015400097058091CE01882329F03092D101209215
:10155000D00152C08091CD01811185C08091CC0114
:10156000811181C049C08EE391E00E94970580916E
:10157000CC0181279091CD019817F0F5D092D1013F
:10158000C092D00139C087E491E00E949705809114
:10159000CB01882399F3E4E0F0E011C080E591E00D
:1015A0000E9497058091CD01882319F085E090E095
:1015B0005CC08091CC018823F9F0E6E0F0E0F09384
:1015C000D101E093D00118C089E591E00E94970510
:1015D0008091CA01882381F00BC082E691E00E94CD
:1015E00097058091C901F6CF8BE691E00E9497059F
:1015F0001092D1011092D0012091D0012093CF01FF
:1016000030E040E050E019A2CE0181967C01CA0191
:10161000B9012AE030E040E050E00E94E20D605D58
:10162000F70162937F01211531054105510579F7D5
:10163000CF010E9485058EE791E00E94850588E034
:101640000E94EE046091CF0184EE92E00E94270296
:101650000E94F8046AE070E080E090E00E94FE05DD
:101660000E948F01EFCE82E090E09093D1018093B1
:10167000D001C2CFCF93DF93E7E4F2E0138212826E
:1016800088EE93E0A0E0B0E084839583A683B783DF
:101690002CE031E03183208325EC30E0358724874E
:1016A00024EC30E03787268720EC30E0318B208B2C
:1016B00021EC30E0338B228B22EC30E0358B248B15
:1016C00026EC30E0378B268B118E128E138E148E03
:1016D000E4EEF2E01382128284839583A683B783BB
:1016E0008EE191E091838083C0EFD2E01B821A8269
:1016F0001D821C8288E0E0E0F1E0AAEFB2E00190F8
:101700000D928A95E1F78BE794E1AEE2B0E08E8F1F
:101710009F8FA8A3B9A38CE59FE8A2E0B0E08AA3BD
:101720009BA3ACA3BDA384E18093460386ED91E027
:1017300090934803809347038DED94E2A6E0BFEBBE
:101740008093550390935603A0935703B093580387
:1017500080E59CEFA8E9BFEB8093590390935A036F
:10176000A0935B03B0935C0383EC93EDABE2BFEB20
:1017700080935D0390935E03A0935F03B093600337
:1017800088E195E9A4E9BEEB80936103909362033D
:10179000A0936303B093640380E895E2909366039B
:1017A00080936503DF91CF9108955058BB27AA27F6
:1017B0000E94ED0B0C94CC0C0E94BE0C38F00E94E1
:1017C000C50C20F039F49F3F19F426F40C94BB0C9F
:1017D0000EF4E095E7FB0C94B50CE92F0E94DD0CAC
:1017E00058F3BA17620773078407950720F079F456
:1017F000A6F50C94FF0C0EF4E0950B2EBA2FA02D3D
:101800000B01B90190010C01CA01A0011124FF27AD
:10181000591B99F0593F50F4503E68F11A16F040A8
:10182000A22F232F342F4427585FF3CF46953795A7
:101830002795A795F0405395C9F77EF41F16BA0B6C
:10184000620B730B840BBAF09150A1F0FF0FBB1F1A
:10185000661F771F881FC2F70EC0BA0F621F731F63
:10186000841F48F4879577956795B795F7959E3FC0
:1018700008F0B0CF9395880F08F09927EE0F979551
:10188000879508950E94490C6894B1110C94000D3D
:1018900008950E94E50C88F09F5798F0B92F99277A
:1018A000B751B0F0E1F0660F771F881F991F1AF04B
:1018B000BA95C9F714C0B13091F00E94FF0CB1E0A5
:1018C00008950C94FF0C672F782F8827B85F39F0A4
:1018D000B93FCCF3869577956795B395D9F73EF4E4
:1018E00090958095709561957F4F8F4F9F4F08958C
:1018F000E89409C097FB3EF49095809570956195AA
:101900007F4F8F4F9F4F9923A9F0F92F96E9BB275F
:101910009395F695879577956795B795F111F8CFDB
:10192000FAF4BB0F11F460FF1BC06F5F7F4F8F4F46
:101930009F4F16C0882311F096E911C0772321F03C
:101940009EE8872F762F05C0662371F096E8862FD4
:1019500070E060E02AF09A95660F771F881FDAF72B
:10196000880F9695879597F9089597F99F6780E86E
:1019700070E060E008959FEF80EC089500240A94E1
:101980001616170618060906089500240A9412165A
:101990001306140605060895092E0394000C11F48D
:1019A000882352F0BB0F40F4BF2B11F460FF04C03A
:1019B0006F5F7F4F8F4F9F4F089557FD9058440F93
:1019C000551F59F05F3F71F04795880F97FB991F9E
:1019D00061F09F3F79F0879508951216130614065B
:1019E000551FF2CF4695F1DF08C0161617061806E8
:1019F000991FF1CF86957105610508940895E894C3
:101A0000BB2766277727CB0197F908950E94190D08
:101A10000C94CC0C0E94BE0C38F00E94C50C20F037
:101A2000952311F00C94B50C0C94BB0C11240C9460
:101A3000000D0E94DD0C70F3959FC1F3950F50E0EF
:101A4000551F629FF001729FBB27F00DB11D639F70
:101A5000AA27F00DB11DAA1F649F6627B00DA11D16
:101A6000661F829F2227B00DA11D621F739FB00DBC
:101A7000A11D621F839FA00D611D221F749F33272C
:101A8000A00D611D231F849F600D211D822F762FC5
:101A90006A2F11249F5750409AF0F1F088234AF0A2
:101AA000EE0FFF1FBB1F661F771F881F915050400E
:101AB000A9F79E3F510580F00C94B50C0C94000DD5
:101AC0005F3FE4F3983ED4F3869577956795B79595
:101AD000F795E7959F5FC1F7FE2B880F911D9695AF
:101AE000879597F9089519F416F40C94BB0C0C948F
:101AF000B90D0E94E50CB8F39923C9F3B6F39F57CB
:101B0000550B87FF0E94C70D0024A0E640EA900114
:101B100080585695979528F4805C660F771F881F2C
:101B200020F026173707480730F4621B730B840B2D
:101B3000202931294A2BA695179407942025312571
:101B40004A2758F7660F771F881F20F02617370798
:101B5000480730F4620B730B840B200D311D411DBF
:101B6000A09581F7B901842F9158880F9695879594
:101B700008959F3F31F0915020F4879577956795B0
:101B8000B795880F911D9695879597F9089591506F
:101B90005040660F771F881FD2F70895AA1BBB1B02
:101BA00051E107C0AA1FBB1FA617B70710F0A61B5D
:101BB000B70B881F991F5A95A9F780959095BC017E
:101BC000CD010895A1E21A2EAA1BBB1BFD010DC079
:101BD000AA1FBB1FEE1FFF1FA217B307E407F507DD
:101BE00020F0A21BB30BE40BF50B661F771F881FB9
:101BF000991F1A9469F760957095809590959B014F
:101C0000AC01BD01CF010895052E97FB1EF4009491
:101C10000E941B0E57FD07D00E94E20D07FC03D067
:101C20004EF40C941B0E50954095309521953F4FE6
:101C30004F4F5F4F089590958095709561957F4FB8
:101C40008F4F9F4F0895EE0FFF1F0590F491E02DE9
:101C5000099481E090E0F8940C942E0EF894FFCF54
:101C60009400950096009700000000002601930064
:101C7000BE006D01EF00CD00E10000000000270272
:101C8000F7015702CB01EF01DB01CC014573746111
:101C9000646F20300045737461646F2031004573B8
:101CA0007461646F20320045737461646F20330087
:101CB00045737461646F20340045737461646F20F0
:101CC000350045737461646F203600457374616438
:101CD0006F20706F722064656661756C74000D0A08
:021CE000000002
:00000001FF
