:100000000C94DB000C9403010C9403010C94030189
:100010000C9403010C9403010C9403010C94030150
:100020000C9403010C9403010C94A4040C94160585
:100030000C9403010C9403010C9403010C94030130
:100040000C9403010C9403010C9403010C94030120
:100050000C9403010C9403010C9403010C945A04B6
:100060000C9403010C9403010C9403010C94030100
:100070000C9403010C9403010C9403010C940301F0
:100080000C9403010C9403010C9403010C940301E0
:100090000C9403010C9403010C9403010C940301D0
:1000A0000C9403010C9403010C9403019E01A10123
:1000B000900194019801C201C201C201A501A901E8
:1000C000AD01B301B701C201BD01080B000202027C
:1000D00001000904000001020200000524001001D3
:1000E0000524010101042402060524060001070578
:1000F000810310004009040100020A000000070506
:1001000002024000000705830240000004030904C6
:1001100012010002EF02014041234180000101026F
:10012000030141726475696E6F204C4C430041724B
:100130006475696E6F2059756E0000000002000939
:100140000F0000030401000C00000000000000008C
:100150000000000000000000000000000025002852
:10016000002B002E00310000000000240027002A90
:10017000002D0030000404040404030405020202FC
:100180000204030202020206060606060604040230
:100190000202040404080201104080401020408044
:1001A00040800802040180402010020110801020CD
:1001B00040402000680811241FBECFEFDAE0DEBF08
:1001C000CDBF11E0A0E0B1E0E4E1F1E102C00590B3
:1001D0000D92A632B107D9F721E0A6E2B1E001C045
:1001E0001D92A639B207E1F710E0CBEDD0E004C0D4
:1001F0002197FE010E947D08CA3DD107C9F70E94E0
:1002000046070C9488080C94000090E0FC01EC5622
:10021000FE4F2491FC01EB58FE4F8491882399F006
:1002200090E0880F991FFC01E959FE4FA591B49108
:10023000FC01E75AFE4F859194918FB7F894EC91A9
:10024000E22BEC938FBF0895FC0180919501811101
:1002500003C08FEF9FEF08959FB7F89482E08093DB
:10026000E9002091F20030E01216130614F421E0A8
:1002700030E02115310559F0289884E680939401E7
:100280008091F10080838091F200882319F09FBF54
:10029000C90108958BE68093E800F9CF2FB7F89451
:1002A00083E08093E9009091E800892F807295FFA8
:1002B00004C09091F20080E4891B2FBF08958091C3
:1002C0008C0181110DC082E08093880184E08093CD
:1002D000890110928B0110928A0181E080938C0138
:1002E00088E891E00895362F90E0FC01E65CFE4F2F
:1002F0004491FC01EC56FE4F2491FC01EB58FE4F5B
:100300008491882309F451C04423E1F150E0FA01BB
:100310003197EF30F105B0F5EA5AFF4F0C947D08A4
:10032000909180009F7707C0909180009F7D03C0CF
:1003300090918000977F9093800024C094B59F7720
:1003400002C094B59F7D94BD1DC0909190009F7791
:1003500007C0909190009F7D03C090919000977F7F
:10036000909390000FC09091C0009F7703C0909130
:10037000C0009F7D9093C00005C09091C200977F00
:100380009093C200E82FF0E0EE0FFF1FE75AFE4FF8
:10039000A591B4918FB7F894EC91311103C02095D9
:1003A0002E2301C02E2B2C938FBF08953FB7F894B6
:1003B0008091840190918501A0918601B09187017F
:1003C00026B5A89B05C02F3F19F00196A11DB11DB0
:1003D0003FBFBA2FA92F982F8827820F911DA11DEB
:1003E000B11DBC01CD0142E0660F771F881F991F28
:1003F0004A95D1F708958F929F92AF92BF92CF9274
:10040000DF92EF92FF926B017C010E94D6014B01BB
:100410005C01C114D104E104F104F1F00E94D601A1
:10042000DC01CB0188199909AA09BB09883E9340D0
:10043000A105B10570F321E0C21AD108E108F10865
:1004400088EE880E83E0981EA11CB11CC114D10453
:10045000E104F10419F7DDCFFF90EF90DF90CF902A
:10046000BF90AF909F908F900895409179015091E7
:100470007A01209177013091780142175307B4F443
:100480009091E8009570E1F39091E80092FD19C019
:100490008093F1008091790190917A0101968F7398
:1004A0009927892B19F48EEF8093E80080917901C8
:1004B00090917A01019690937A018093790181E07D
:1004C000089580E00895CF92DF92EF92FF920F930C
:1004D0001F93CF93DF931F92CDB7DEB7182F062F50
:1004E000E42E862F880F8E5F99830E94350283E069
:1004F0000E943502F12EC12E9981D92E8C2D8F1993
:10050000801798F4F601E7FE02C0849101C0808153
:100510000E943502182F80E00E9435028123FFEFF0
:10052000CF1ADF0A8111EACF01C081E00F90DF917D
:10053000CF911F910F91FF90EF90DF90CF90089592
:10054000DF92EF92FF920F931F93CF93DF93D82EFA
:100550008A017B01E40EF51EEB01CE15DF0571F07B
:10056000D7FE03C0FE01849101C088810E9435023C
:1005700021968111F2CF8FEF9FEF01C0C801DF916B
:10058000CF911F910F91FF90EF90DF9008950F93FF
:100590001F93CF93DF931F92CDB7DEB782E089839D
:1005A00042E450E06AEC70E080E80E94A0020E9401
:1005B0005F01DC0112960D911C9113970115110535
:1005C00069F0D801ED91FC910280F381E02DBE012C
:1005D0006F5F7F4FC801099597FF07C089810F9012
:1005E000DF91CF911F910F910895F801008511853A
:1005F000E5CF615030F02091F100FC01208301969D
:10060000F8CF289884E6809394010895CF92DF92E2
:10061000EF92FF920F931F93CF93DF936C017A01B8
:100620008B01C0E0D0E0CE15DF0589F0D8016D91D7
:100630008D01D601ED91FC910190F081E02DC60174
:100640000995892B11F47E0102C02196ECCFC701D8
:10065000DF91CF911F910F91FF90EF90DF90CF909E
:1006600008958F929F92AF92BF92CF92DF92EF92B6
:10067000FF920F931F93CF93DF935C016B017A017D
:1006800080910B01882309F45BC080919501882338
:1006900009F456C080917D0180FF05C08091E00083
:1006A00082608093E000E70110E00AEF83E0882E8B
:1006B0009AE3992E2097D9F10E944E0181110AC028
:1006C000015009F43DC061E070E080E090E00E94DC
:1006D000FB01F0CF282F30E0C217D3070CF48C2F8A
:1006E0004FB7F8948092E9009091E80095FF1DC003
:1006F000282F30E0C21BD30BF601982F915020F029
:1007000081918093F100FACFC20ED31E112319F00C
:100710009092E80009C08091E80085FD06C09092A3
:10072000E80011E0209709F010E04FBFC3CF11118E
:10073000C3CF5D9884E680937E011E141F0444F0AD
:1007400081E090E0F5019383828380E090E001C036
:10075000C701DF91CF911F910F91FF90EF90DF9034
:10076000CF90BF90AF909F908F900895CF93DF93DD
:100770001F92CDB7DEB76983DC01ED91FC91028059
:10078000F381E02D41E050E0BE016F5F7F4F09959E
:100790000F90DF91CF91089583E08093E9008091DD
:1007A000F200882319F08AE38093E80008950E94FC
:1007B0004E0190E00895CF93DF931F92CDB7DEB73F
:1007C000FC018485958597FD05C02FEF3FEF3587A8
:1007D00024870BC0CE0101960E942401019719F4D1
:1007E000898190E002C08FEF9FEF0F90DF91CF9152
:1007F00008950F931F93CF93DF931F92CDB7DEB76A
:100800008C01FC018485958597FF0EC0CE01019671
:100810000E942401019719F4298130E002C02FEFD2
:100820003FEFF80135872487F801848595850F907F
:10083000DF91CF911F910F910895FC0184859585DB
:1008400097FD0BC09FB7F89482E08093E9008091F8
:10085000F2009FBF90E0019608959FB7F89482E060
:100860008093E9008091F2009FBF90E00895089581
:1008700080E090E008950CB405FC0DC09EBD000022
:100880000DB407FEFDCF9EB58EBD00000DB407FE72
:10089000FDCF8EB508958EBD00000DB407FEFDCFCF
:1008A0008EB59EBD00000DB407FEFDCF9EB5089528
:1008B0000E9483081F920F920FB60F9211242F935C
:1008C0003F938F939F93AF93BF93809180019091BB
:1008D0008101A0918201B091830130917F0123E0D9
:1008E000230F2D3720F40196A11DB11D05C026E868
:1008F000230F0296A11DB11D20937F0180938001DB
:1009000090938101A0938201B0938301809184012F
:1009100090918501A0918601B09187010196A11D5A
:10092000B11D8093840190938501A0938601B093BB
:100930008701BF91AF919F918F913F912F910F9020
:100940000FBE0F901F9018951F920F920FB60F9227
:1009500011248F939F938091E1009091E100937F08
:100960009093E10083FF0FC01092E90091E0909313
:10097000EB001092EC0092E39093ED001092950141
:1009800098E09093F00082FF20C093E09093E900FC
:100990009091F200992319F09AE39093E8009091D6
:1009A0007E01992339F090917E01915090937E01C0
:1009B000992389F190919401992339F090919401B0
:1009C000915090939401992341F184FF10C080913C
:1009D000E2008E7E81608093E2008091E1008F7E54
:1009E0008093E10080917D018E7E806111C080FF47
:1009F00016C08091E2008E7E80618093E20080913B
:100A0000E1008E7E8093E10080917D018E7E816089
:100A100080937D0104C05D9ACDCF289AD6CF9F9157
:100A20008F910F900FBE0F901F9018951F920F92ED
:100A30000FB60F921124CF92DF92EF92FF920F9395
:100A40001F932F933F934F935F936F937F938F9356
:100A50009F93AF93BF93EF93FF93CF93DF93CDB764
:100A6000DEB76C97DEBFCDBF1092E9008091E80041
:100A700083FFEDC168E0CE0145960E94F90282EF46
:100A80008093E8008D8987FF05C09091E80090FF72
:100A9000FCCF03C09EEF9093E800982F907609F06A
:100AA000C6C09E892F89188D91110CC0803829F4F9
:100AB00080917C018093F10002C01092F1001092AD
:100AC000F10048C1422F50E0512B913051F4811177
:100AD00041C14130510509F03DC180917C018D7FBC
:100AE0000BC0933061F4811135C14130510509F0DB
:100AF00031C180917C01826080937C012BC1953053
:100B000041F48091E80080FFFCCF20682093E3004F
:100B100021C1963009F05FC0EB8CFC8C1092E9008B
:100B200010927A0110927901123091F510927801A9
:100B3000109277010E94C70299E0BE016F5F7F4F5C
:100B4000DB01E92F1D92EA95E9F799831A8391E079
:100B50009E8390EA98879AEF998720917901309146
:100B60007A01275F3F4F3C832B838D831092E900EE
:100B700010927A0110927901F0927801E092770157
:100B800049E050E080E00E94A0020E94C702E2C05B
:100B9000F0927801E09277010E945F01DC011296E9
:100BA000ED90FC901397E114F10409F4C0C0D70153
:100BB000ED91FC910480F581E02DBE016B5E7F4FCD
:100BC000C7010995009719F00CF0C4C0C7C0F70120
:100BD000E084F184E8CF973009F4C0C0983021F464
:100BE00081E08093F100B6C0993009F0B3C0837002
:100BF00009F0B4C0EFE1F1E081E021E036E390815B
:100C0000992361F08093E9002093EB0091919093F8
:100C1000EC003093ED008F5F873089F78EE780938B
:100C2000EA001092EA008F898093950193C08B8D22
:100C30009C8D1092E90010927A01109279019093A4
:100C4000780180937701898D811156C08E899D89A5
:100C5000913A59F4813209F081C047E050E064E0F4
:100C600071E080E00E94A00275C0913209F076C068
:100C7000833289F4888D90E0982F88272F89822BE2
:100C8000A0E0B0E08093000190930101A0930201E5
:100C9000B09303015FC0803269F48091E80082FF65
:100CA000FCCF67E084E091E00E94F9028BEF809333
:100CB000E80006C0823209F04DC08F8980930B0195
:100CC00080917B01882319F0EEEFFAE002C0E0E0AA
:100CD000F8E08091040190910501A0910601B09186
:100CE0000701803B9440A105B10509F07BC08091CC
:100CF0000B0180FF93C076C00E945F01DC01129659
:100D00000D911C9113970115110541F1D801ED9139
:100D1000FC910190F081E02DBE016B5E7F4FC80118
:100D20000995811117C0F80100851185ECCF1130AC
:100D300009F44EC0133091F48F89882309F445C01B
:100D4000823081F440E86BE08EE291E00E94630221
:100D5000882321F08EEF8093E80079C081E28093B0
:100D6000EB0075C0813029F440E86BE082E291E04D
:100D7000EDCF833099F70E945F01DC011296ED9070
:100D8000FC9013978E010F5F1F4F6801E114F1046F
:100D900079F0D701ED91FC910680F781E02DB80143
:100DA000C7010995080F111DF701E084F184EECF0A
:100DB000D8011C92F60101900020E9F73197BF019C
:100DC0006C197D0940E0C601C1CF6CE071E002C042
:100DD00060E171E06115710509F2FB01449150E099
:100DE00080E840CF0FB6F894A895809160008861A4
:100DF00080936000109260000FBEA895EE3F2AE03D
:100E0000F20739F08091FE0A9091FF0A9183808366
:100E1000A1CF1092FF0A1092FE0A9CCFEE3F8AE00B
:100E2000F80731F0808191819093FF0A8093FE0A48
:100E300087E797E7918380839BE088E10FB6F8947A
:100E4000A895809360000FBE9093600083CF6C964E
:100E50000FB6F894DEBF0FBECDBFDF91CF91FF91EB
:100E6000EF91BF91AF919F918F917F916F915F9122
:100E70004F913F912F911F910F91FF90EF90DF9035
:100E8000CF900F900FBE0F901F901895789484B557
:100E9000826084BD84B5816084BD85B5826085BD76
:100EA00085B5816085BD80916E00816080936E0004
:100EB00010928100809181008260809381008091F6
:100EC00081008160809381008091800081608093A7
:100ED00080008091910082608093910080919100C8
:100EE0008160809391008091900081608093900058
:100EF0008091C10084608093C1008091C1008260B4
:100F00008093C1008091C10081608093C100809175
:100F1000C30081608093C3008091C0008260809391
:100F2000C0008091C20081608093C20080917A00ED
:100F3000846080937A0080917A00826080937A0046
:100F400080917A00816080937A0080917A00806835
:100F500080937A001092950110927C0110927D018D
:100F60008091D70081608093D70080EA8093D80079
:100F700089B5806189BD89B5826089BD09B400FEEB
:100F8000FDCF61E070E080E090E00E94FB01809185
:100F9000D8008F7C80618093D8008091E000807FB2
:100FA0008093E0008091E1008E7E8093E1008DE0EF
:100FB0008093E200559A209AEEEFFFE78591949195
:100FC0008B3F9C4D19F481E080937B0186E00E9469
:100FD000050161E086E00E9473018EE00E94050138
:100FE000CFB7F89480912601811124C0E6E8F1E0A2
:100FF0008491E5EAF1E09491E82FF0E0EE0FFF1F15
:10100000E959FE4FA591B491EC91E92321F461E0F7
:1010100081E10E94730181E10E9405018CB580612C
:101020008CBD8CB580648CBD8FE00E94050180E191
:101030000E940501809126018F5F80932601CFBF1A
:101040006AE070E080E090E00E94FB01C9E0D0E03F
:1010500008E511E00CBD1DBD60E08EE00E9473014B
:1010600088E291E20E943B0487E097E60E943B04FD
:1010700084EC90E40E943B0480E090EC0E943B04EE
:1010800088E290E20E943B0461E08EE00E947301DE
:1010900064E170E080E090E00E94FB012197D1F6CE
:1010A0008FEF9FEF9093340180933301C0E0D0E045
:1010B00085E00E94050161E085E00E94730160E027
:1010C00086E00E947301209799F30E940000F0CF00
:1010D000E7E2F1E01382128288EE93E0A0E0B0E054
:1010E00084839583A683B78380E191E09183808395
:1010F0008FEF9FEF958784870895EE0FFF1F059070
:10110000F491E02D099481E090E0F8940C94880823
:04111000F894FFCF81
:10111400FFFFFFFF00E100000000000000000000EE
:10112400B6033103D703CC031D04DB03F90300C169
:06113400808100000000B4
:00000001FF
