:100000000C9469000C9491000C9491000C94910054
:100010000C9491000C9491000C9491000C9491001C
:100020000C9491000C9491000C9491000C9491000C
:100030000C9491000C9491000C9491000C949100FC
:100040000C9474080C9491000C94E4080C94BE0871
:100050000C9491000C9491000C9491000C949100DC
:100060000C9416090C949100080CF70B050C0D0C60
:10007000160C240C270C0000000023002600290089
:100080000000000800020100000304070000000057
:100090000000000000000000250028002B000000E8
:1000A0000000240027002A000404040404040404BB
:1000B0000202020202020303030303030102040813
:1000C00010204080010204081020010204081020C2
:1000D000620A11241FBECFEFD8E0DEBFCDBF11E012
:1000E000A0E0B1E0EEE5FDE102C005900D92A03484
:1000F000B107D9F723E0A0E4B1E001C01D92AA3214
:10010000B207E1F710E0C9E6D0E004C02197FE0194
:100110000E94A20EC836D107C9F70E94060B0C94A4
:10012000AD0E0C940000682F8CEA91E00C94DC0773
:10013000809186018111FCCF81E0809386018093BC
:1001400085019FEF909384011092830110928201A8
:1001500080938101809181018A61809381018091E6
:100160008001813061F4109280018091810180933F
:10017000BB008091BC0083FDF8CF85EC01C085EE0B
:100180008093BC00809186018130E1F380918301EE
:10019000811103C08091830101C081E0A0E6B1E03C
:1001A00027E831E0F9019E2F921B981718F49D91D2
:1001B0009193F9CF1092AB018093AA0108950E9408
:1001C00098009091AA018091AB01981749F08CEAB0
:1001D00091E00E94900790935E0280935D02F1CFC0
:1001E0006AE070E080E090E00C943A08CF92DF92F1
:1001F000EF92FF926B017C01E091C801F091C9017F
:1002000082E08083C11481EED806E104F104B1F0EC
:1002100060E079E08DE390E0A70196010E94610E15
:10022000DA01C9010197A109B109B695A79597957A
:1002300087959C01211580E13807B8F0E091C8014D
:10024000F091C901108260E874E88EE190E0A701A6
:1002500096010E94610EDA01C9010197A109B10955
:10026000B695A795979587959C01E091C401F0916B
:10027000C5013083E091C601F091C701208310923F
:10028000D001E091CC01F091CD0186E08083E09136
:10029000CA01F091CB01808180618083E091CA0125
:1002A000F091CB01808188608083E091CA01F09158
:1002B000CB01808180688083E091CA01F091CB01FD
:1002C00080818F7D8083FF90EF90DF90CF900895A5
:1002D000CF93DF9390E0FC01E454FF4F2491FC01A5
:1002E000E855FF4F84918823C1F090E0880F991F53
:1002F000FC01E256FF4FC591D491FC01EC56FF4F33
:10030000A591B4919FB7F8948881E22FE0958E2350
:1003100088838C91E823EC939FBFDF91CF91089560
:10032000009769F0FC0101900020E9F73197AF01D7
:10033000481B590BBC0188EB91E00C94480680E007
:1003400090E008958F929F92AF92BF920F931F9368
:10035000CF93DF93CDB7DEB7A1970FB6F894DEBF8A
:100360000FBECDBF19A2423008F44AE08E010F5DE6
:100370001F4F842E912CA12CB12CA50194010E9419
:10038000610EE62FB901CA0101501109EA3014F4D7
:10039000E05D01C0E95CD801EC93232B242B252BD5
:1003A00061F7C8010E949001A1960FB6F894DEBFD4
:1003B0000FBECDBFDF91CF911F910F91BF90AF9036
:1003C0009F908F900895CF92DF92EF92FF92CF93FC
:1003D000DF936C01990FEE08FF08F7FE1AC0E09159
:1003E000B801F091B9010190F081E02D6DE288EB48
:1003F00091E00995EC0166277727CB016C197D09FF
:100400008E099F094AE00E94A2017C01EC0EFD1EAC
:1004100006C04AE0C701B6010E94A2017C018CE23D
:1004200091E00E9490018E0D9F1DDF91CF91FF9072
:10043000EF90DF90CF90089591E09093A701809383
:10044000D0021092A9011092A80108952091A8014C
:100450009091D002213208F04AC08091860181112A
:10046000FCCF32E03093860131E0309385013FEFDD
:10047000309384011092830120938201A0E4B1E0C3
:1004800040E651E0FA013E2F341B321718F43D913B
:100490003193F9CF1092810120918101990F922B14
:1004A0009093810190918001913061F410928001CC
:1004B000909181019093BB009091BC0093FDF8CF87
:1004C00095EC01C095EE9093BC009091860192301E
:1004D000E1F3909184019F3F79F080918401803213
:1004E00041F080918401803331F084E005C081E0E7
:1004F00003C082E001C083E01092A9011092A8011C
:100500001092A7010895CF93DF931F92CDB7DEB766
:10051000682F8DE069830E941C0280EB90E00E94AE
:10052000930069818CEA91E00E94DC070F90DF91D3
:10053000CF910C942602CF93DF931F92CDB7DEB7F5
:10054000682F8DE069830E941C0280E890E00E9481
:10055000930069818CEA91E00E94DC070F90DF91A3
:10056000CF910C9426022F923F924F925F926F92FE
:100570007F928F929F92AF92BF92CF92DF92EF9233
:10058000FF920F931F93CF93DF9300D0CDB7DEB7C9
:100590008FE80E9483020E94DF0080915D029091AB
:1005A0005E0282709927909372028093710264E0D8
:1005B000862E912CA12CB12C809171029091720207
:1005C000029709F037C1109256021092550280919D
:1005D0005502909156028430910574F7880F991F47
:1005E000FC01E15AFD4F80810E9483026AE070E0C5
:1005F00080E090E00E943A080E9498009091AA0141
:100600008091AB010091550210915602981769F044
:100610008CEA91E00E9490079801220F331F29591C
:100620003D4FF90191838083E9CF0330110509F033
:10063000F7C080E30E949B0230906702212C6091FA
:10064000690270916A02622973297093840260932F
:100650008302F0916B02FA83198200916D0210916E
:100660006E0229813A81022B132B1093860200938C
:100670008502072E000C880B990B0E94F90C2B01A8
:100680003C01B801110F880B990B0E94F90C6B010A
:100690007C01A3019201C301B2010E94850D2B01CF
:1006A0003C01A7019601C701B6010E94850D9B017F
:1006B000AC01C301B2010E94550C0E94C10C6093B1
:1006C0008702709388028093890290938A02E09057
:1006D0005702F09058020E94F90C0E94F80D870111
:1006E000000F111F05571D4F0E94C80CF8017183A0
:1006F000608387010F5F1F4F1093580200935702CA
:100700000330110509F08CC08FE80E9483020E941B
:10071000DF0080915D0290915E0284709927909332
:10072000700280936F02049709F07AC020915902F9
:1007300030915A02F901EE0FFF1FEE0FFF1FEF5627
:10074000FD4F40918D0250918E0280918B029091CD
:100750008C02840F951F40918F0250919002840F5C
:10076000951FB8010E944D0ECB01A0E0B0E0808340
:100770009183A283B383109272021092710210923D
:100780005802109257022430310509F040C04091C0
:100790009502509196026091970270919802809113
:1007A000990290919A02A0919B02B0919C02480FED
:1007B000591F6A1F7B1F80919D0290919E02A091FC
:1007C0009F02B091A002480F591F6A1F7B1F8091A2
:1007D000A1029091A202A091A302B091A4028A0169
:1007E0009B01080F191F2A1F3B1FC901B801A50152
:1007F00094010E94830E2093A5023093A602409399
:10080000A7025093A80210925A02109259028091A6
:10081000590290915A02019690935A02809359027C
:1008200080915502909156020196909356028093C2
:100830005502CDCE0F900F90DF91CF911F910F9168
:10084000FF90EF90DF90CF90BF90AF909F908F90F0
:100850007F906F905F904F903F902F900895CF932F
:10086000DF93282F30E0F901E058FF4F8491F90120
:10087000E454FF4FD491F901E855FF4FC491CC23C4
:1008800091F081110E941108EC2FF0E0EE0FFF1F94
:10089000EA58FF4FA591B491EC91ED2381E090E0EF
:1008A00021F480E002C080E090E0DF91CF910895D4
:1008B0001F93CF93DF93282F30E0F901E058FF4FCB
:1008C0008491F901E454FF4FD491F901E855FF4FA9
:1008D000C491CC23C9F0162F81110E941108EC2F6E
:1008E000F0E0EE0FFF1FEC56FF4FA591B4918FB7CC
:1008F000F894111105C09C91ED2FE095E92302C0F9
:10090000EC91ED2BEC938FBFDF91CF911F91089568
:10091000CF92DF92EF92FF920F931F93CF93DF93CB
:10092000DBE714E10EE28CE5F82E9FE8E92EC2E049
:1009300080915B0290915C028A3091050CF0F7C0C7
:100940009C01297F232B19F0089709F0AFC0D093A1
:100950007B0210937C0200937D028DE00E941C02BA
:1009600082E890E00E94930060917D028CEA91E021
:100970000E94DC070E9426028DE00E941C0283E890
:1009800090E00E94930060917C028CEA91E00E94CA
:10099000DC070E9426028DE00E941C0284E890E0A1
:1009A0000E94930060917B028CEA91E00E94DC0738
:1009B0000E942602F0927E02E0927F02C0938002A3
:1009C0008DE00E941C0285E890E00E9493006091F7
:1009D00080028CEA91E00E94DC070E9426028DE0F2
:1009E0000E941C0286E890E00E94930060917F02C2
:1009F0008CEA91E00E94DC070E9426028DE00E94B2
:100A00001C0287E890E00E94930060917E028CEACD
:100A100091E00E94DC070E942602C093810210929E
:100A200082028DE00E941C0288E890E00E94930000
:100A3000609182028CEA91E00E94DC070E9426020B
:100A40008DE00E941C0289E890E00E949300609172
:100A500081028CEA91E00E94DC070E9426028DE070
:100A60000E941C028BE890E00E9493006091AB0210
:100A70008CEA91E00E94DC070E94260280EB0E9433
:100A80009B0281E00E949B0280E10E949B0280E227
:100A90000E949B026AE070E080E090E00E943A08C9
:100AA0006EE070E080E090E00E943A0880915B0286
:100AB00090915C020197A1F461E086E00E945804E5
:100AC0000E94B3028DE00E941C0281E890E00E9427
:100AD000930061E08CEA91E00E94DC070E9426020C
:100AE00080915B0290915C029C012B7F2330310549
:100AF00011F0059731F460E086E00E9458040E94EE
:100B0000B30280915B0290915C02099731F460E03E
:100B100086E00E9458040E94B30280915B0290918B
:100B20005C02019690935C0280935B0201CF60911E
:100B3000A5027091A6028091A7029091A8020E943E
:100B4000F90C6B017C012091BA023091BB024091FB
:100B5000BC025091BD020E94850D20E038E849E2B8
:100B600056E40E94550C0E94C10C6093AE02709333
:100B7000AF028093B0029093B1026E3121E0720710
:100B8000810591058CF42091BE023091BF02409105
:100B9000C0025091C102C701B6010E94850D20E03C
:100BA0003CEF4DEB56E432C08B019C010F511140DC
:100BB00021093109043C11052105310588F42091F2
:100BC000C2023091C3024091C4025091C502C701D4
:100BD000B6010E94850D20E030EA47E556E416C0D4
:100BE0006B3E22E0720781059105A4F02091C602B8
:100BF0003091C7024091C8025091C902C701B601A5
:100C00000E94850D20E038E646EC55E40E94550C24
:100C10000E94C10C6093B2027093B3028093B4023D
:100C20009093B5026091B2027091B3028091B402C8
:100C30009091B502DF91CF911F910F91FF90EF90AE
:100C4000DF90CF9008953FB7F8948091260390915C
:100C50002703A0912803B091290326B5A89B05C0BE
:100C60002F3F19F00196A11DB11D3FBFBA2FA92F2B
:100C7000982F8827820F911DA11DB11DBC01CD01A8
:100C800042E0660F771F881F991F4A95D1F7089594
:100C9000CF92DF92EF92FF920F931F93CF93DF9348
:100CA0006C017A018B01C0E0D0E0CE15DF0589F040
:100CB000D8016D918D01D601ED91FC910190F081EB
:100CC000E02DC6010995892B11F47E0102C0219601
:100CD000ECCFC701DF91CF911F910F91FF90EF9063
:100CE000DF90CF900895FC01538D448D252F30E087
:100CF000842F90E0821B930B541710F0CF96089529
:100D000001970895FC01918D828D981761F0828D75
:100D1000DF01A80FB11D5D968C91928D9F5F9F732F
:100D2000928F90E008958FEF9FEF0895FC01918DD1
:100D3000828D981731F0828DE80FF11D858D90E03E
:100D400008958FEF9FEF0895FC01918D228D892FDB
:100D500090E0805C9F4F821B91098F7399270895C3
:100D600088EB91E00E94A40621E0892B09F420E0A1
:100D7000822F0895FC01848DDF01A80FB11DA35AB5
:100D8000BF4F2C91848D90E001968F739927848FAB
:100D9000A689B7892C93A089B1898C9180648C93A2
:100DA000938D848D981306C00288F389E02D80818D
:100DB0008F7D80830895EF92FF920F931F93CF93BF
:100DC000DF93EC0181E0888F9B8D8C8D981305C09B
:100DD000E889F989808185FD24C0F62E0B8D10E00D
:100DE0000F5F1F4F0F731127E02E8C8DE8120CC080
:100DF0000FB607FCFACFE889F989808185FFF5CF26
:100E0000CE010E94BA06F1CF8B8DFE01E80FF11DD5
:100E1000E35AFF4FF0820B8FEA89FB898081806261
:100E200007C0EE89FF896083E889F9898081806441
:100E3000808381E090E0DF91CF911F910F91FF902F
:100E4000EF900895CF93DF93EC01888D8823C9F04C
:100E5000EA89FB89808185FD05C0A889B9898C91C3
:100E600086FD0FC00FB607FCF5CF808185FFF2CF5E
:100E7000A889B9898C9185FFEDCFCE010E94BA0671
:100E8000E7CFDF91CF91089580E090E0892B29F0A2
:100E90000E94B00681110C940000089585ED8093A6
:100EA000BC008091BC0084FDFCCF109286010895A7
:100EB0004091F302262F30E0240F311D21323105FD
:100EC000DCF4209186012430C9F4FC0180E090E03C
:100ED000861758F43091F3022191DC01AF52BD4FD7
:100EE000A30FB11D2C930196F3CF8091F302680FED
:100EF0006093F30280E0089581E0089582E0089510
:100F00000895E091AB018091AA01E81730F4F0E078
:100F1000E957FE4F808190E008958FEF9FEF08958D
:100F20009091AB018091AA01981750F4E92FF0E05D
:100F3000E957FE4F208130E09F5F9093AB0102C0E4
:100F40002FEF3FEFC90108958091AA0190E0209111
:100F5000AB01821B91090895CF92DF92EF92FF922D
:100F60000F931F93CF93DF937C01262F972F8A0136
:100F70008091A701882391F0C62FD72F6E01C40E50
:100F8000D51ECC15DD0571F06991D701ED91FC916D
:100F90000190F081E02DC7010995F3CF642F822FD6
:100FA0000E945807C801DF91CF911F910F91FF90C8
:100FB000EF90DF90CF900895CF93DF931F92CDB73E
:100FC000DEB769832091A7012223D1F02091A801E7
:100FD000203240F021E030E0FC013383228380E0C6
:100FE00090E015C08091A901E82FF0E0E05CFE4F91
:100FF000998190838F5F8093A9018093A80105C098
:1010000061E0CE0101960E94580781E090E00F90C8
:10101000DF91CF910895089580E090E008950E94B7
:10102000A80E833081F028F4813099F08230A1F04D
:1010300008958730A9F08830B9F08430D1F48091D8
:1010400080008F7D03C0809180008F778093800027
:10105000089584B58F7702C084B58F7D84BD0895CF
:101060008091B0008F7703C08091B0008F7D809316
:10107000B00008958F929F92AF92BF92CF92DF926D
:10108000EF92FF926B017C010E9423064B015C01F1
:10109000C114D104E104F104F1F00E942306DC0143
:1010A000CB0188199909AA09BB09883E9340A1057B
:1010B000B10570F321E0C21AD108E108F10888EE09
:1010C000880E83E0981EA11CB11CC114D104E10458
:1010D000F10419F7DDCFFF90EF90DF90CF90BF9034
:1010E000AF909F908F9008951F920F920FB60F921E
:1010F00011242F933F938F939F93AF93BF9380912E
:10110000220390912303A0912403B09125033091F1
:10111000210323E0230F2D3720F40196A11DB11DDB
:1011200005C026E8230F0296A11DB11D20932103BF
:101130008093220390932303A0932403B093250369
:101140008091260390912703A0912803B091290351
:101150000196A11DB11D8093260390932703A093B0
:101160002803B0932903BF91AF919F918F913F9135
:101170002F910F900FBE0F901F9018951F920F92F6
:101180000FB60F9211242F933F934F935F936F935A
:101190007F938F939F93AF93BF93EF93FF9388EBCE
:1011A00091E00E94BA06FF91EF91BF91AF919F919C
:1011B0008F917F916F915F914F913F912F910F9000
:1011C0000FBE0F901F9018951F920F920FB60F929F
:1011D00011242F938F939F93EF93FF93E091C80176
:1011E000F091C9018081E091CE01F091CF0182FDA3
:1011F00012C090818091D1018F5F8F732091D201B5
:10120000821751F0E091D101F0E0E854FE4F958F44
:101210008093D10101C08081FF91EF919F918F91C7
:101220002F910F900FBE0F901F9018951F920F9245
:101230000FB60F9211242F933F934F935F936F93A9
:101240007F938F939F93AF93BF93EF93FF9380917F
:10125000B900887F803609F49CC068F5883209F4AB
:101260005BC090F4803109F454C038F4882309F449
:10127000F6C0883009F44DC0F6C0883109F44CC07E
:10128000803209F45DC0EFC0803409F468C048F4CE
:10129000803309F455C0883309F0E5C08093840198
:1012A000D8C0803509F44FC0883509F45DC0883452
:1012B00009F0D9C0D6C0883909F4C7C0A8F4883766
:1012C00009F467C038F4883609F463C0803709F43C
:1012D00060C0C9C0883809F4B8C0803909F45FC05B
:1012E000803809F0C0C05BC0803B09F486C038F488
:1012F000803A09F466C0883A09F47FC0B4C0803CE3
:1013000009F4A7C0883C09F4A4C0883B09F48AC04A
:10131000AAC08091810110C09091830180918201C7
:10132000981770F5E091830181E08E0F809383011F
:10133000F0E0E05AFE4F80818093BB0085EC86C0D0
:10134000809384018EC0E091830181E08E0F8093B1
:1013500083018091BB00F0E0E05AFE4F80839091C2
:101360008301809182016EC0E091830181E08E0F44
:10137000809383018091BB00F0E0E05AFE4F8083B0
:101380008091850181116DC081E08093800184EAA4
:1013900061C083E08093860110921703CFCF8091C4
:1013A0001703803208F051C0E091170381E08E0FDF
:1013B000809317038091BB00F0E0E950FD4F8083DC
:1013C000BDCF85EC8093BC001092860180911703FD
:1013D000803230F4E0911703F0E0E950FD4F1082C5
:1013E0006091170370E0E091F502F091F60287EF4B
:1013F00092E009951092170336C084E0809386012D
:101400001092F4021092F302E091F102F091F202D4
:1014100009958091F302811105C081E08093F30268
:101420001092D102E091F40281E08E0F8093F402D9
:10143000F0E0EF52FD4F80818093BB009091F40269
:101440008091F302981708F479CF85E88093BC0067
:101450000AC085EC8093BC001092860104C01092F3
:1014600084010E944E07FF91EF91BF91AF919F9130
:101470008F917F916F915F914F913F912F910F903D
:101480000FBE0F901F9018951092860181E08093F7
:1014900085011092800161E082E10E94580461E0C0
:1014A00083E10E945804E9EBF0E080818E7F808325
:1014B00080818D7F808388E48093B80085E4809369
:1014C000BC000895CF93DF93E8EBF1E01382128222
:1014D00088EE93E0A0E0B0E084839583A683B78391
:1014E0002CE031E03183208325EC30E03587248700
:1014F00024EC30E03787268720EC30E0318B208BDE
:1015000021EC30E0338B228B22EC30E0358B248BC6
:1015100026EC30E0378B268B118E128E138E148EB4
:10152000ECEAF1E01382128284839583A683B78369
:101530008EE191E091838083C5E5D2E01B821A821F
:101540001D821C8288E0E0E0F1E0AFE5B2E00190AE
:101550000D928A95E1F78BE794E1AEE2B0E08E8FD1
:101560009F8FA8A3B9A38CE59FE8A2E0B0E08AA36F
:101570009BA3ACA3BDA384E18093AB0286ED91E075
:101580009093AD028093AC028DED94E2A6E0BFEBA8
:101590008093BA029093BB02A093BC02B093BD02A9
:1015A00080E59CEFA8E9BFEB8093BE029093BF0259
:1015B000A093C002B093C10283EC93EDABE2BFEB0A
:1015C0008093C2029093C302A093C402B093C50259
:1015D00088E195E9A4E9BEEB8093C6029093C70227
:1015E000A093C802B093C90260E875E280E090E081
:1015F0000E94F6001092AB011092AA011092A9016C
:101600001092A801DF91CF910C94440A789484B58C
:10161000826084BD84B5816084BD85B5826085BDEE
:1016200085B5816085BD80916E00816080936E007C
:10163000109281008091810082608093810080916E
:10164000810081608093810080918000816080931F
:1016500080008091B10084608093B1008091B000DF
:1016600081608093B00080917A00846080937A00DA
:1016700080917A00826080937A0080917A00816004
:1016800080937A0080917A00806880937A0010922B
:10169000C1001092AB011092AA011092A901109200
:1016A000A8010E94440A60E875E280E090E00E9490
:1016B000F60088E00E94680189E00E94680184E0E9
:1016C0000E94680183E00E9468015524539486E0DB
:1016D000E82EF12C95E0C92ED12C24E0A22EB12CBD
:1016E000C1E0D0E002E010E033E0832E912C1092B4
:1016F0005C0210925B020E9488048091B202909179
:10170000B302A091B402B091B5028093B602909357
:10171000B702A093B802B093B9023C010E94E30162
:1017200020EE621621E072061CF450921D0302C0E6
:1017300010921D038FE291E00E9490018CE291E0F3
:101740000E94900180911D0390E00E94E30110929D
:101750005C0210925B020E9488048091B202909118
:10176000B302A091B402B091B5028093B6029093F7
:10177000B702A093B802B093B902843C99401CF41C
:1017800050921A0302C010921A0388E00E942F049C
:1017900066246394892B09F4612C60921C0389E010
:1017A0000E942F0477247394892B09F4712C709272
:1017B0001B0384E00E942F0444244394892B09F4E2
:1017C000412C4092190383E00E942F0421E0892BD1
:1017D00009F420E020931803E0911F03F091200307
:1017E000E730F105B0F5EC5CFF4F0C94A20E809150
:1017F0001D03882329F09092200380921F032DC09F
:1018000061104DC071104BC028C07524671428F5B5
:10181000D0932003C0931F0320C080911A03882314
:10182000E1F0B0922003A0921F0317C0662029F0B8
:10183000D0922003C0921F0310C0772071F0F09265
:101840002003E0921F0309C0442039F002C0222384
:1018500021F01092200310921F0360911F036093E8
:101860001E0370E080E090E04AE00E94A2018CE25A
:1018700091E00E94900188E00E941C0260911E038A
:101880008CEA91E00E94DC070E9426026AE070E088
:1018900080E090E00E943A080E94440728CF10930D
:1018A000200300931F03D9CF5058BB27AA270E94BB
:1018B0006C0C0C944B0D0E943D0D38F00E94440DB1
:1018C00020F039F49F3F19F426F40C943A0D0EF4ED
:1018D000E095E7FB0C94340DE92F0E945C0D58F362
:1018E000BA17620773078407950720F079F4A6F505
:1018F0000C947E0D0EF4E0950B2EBA2FA02D0B014B
:10190000B90190010C01CA01A0011124FF27591B44
:1019100099F0593F50F4503E68F11A16F040A22F4A
:10192000232F342F4427585FF3CF469537952795BB
:10193000A795F0405395C9F77EF41F16BA0B620BBA
:10194000730B840BBAF09150A1F0FF0FBB1F661F01
:10195000771F881FC2F70EC0BA0F621F731F841F44
:1019600048F4879577956795B795F7959E3F08F06A
:10197000B0CF9395880F08F09927EE0F979587952C
:1019800008950E94C80C6894B1110C947F0D0895BD
:101990000E94640D88F09F5798F0B92F9927B7518E
:1019A000B0F0E1F0660F771F881F991F1AF0BA9503
:1019B000C9F714C0B13091F00E947E0DB1E00895D6
:1019C0000C947E0D672F782F8827B85F39F0B93FC8
:1019D000CCF3869577956795B395D9F73EF49095B6
:1019E0008095709561957F4F8F4F9F4F0895E89434
:1019F00009C097FB3EF490958095709561957F4F57
:101A00008F4F9F4F9923A9F0F92F96E9BB27939504
:101A1000F695879577956795B795F111F8CFFAF414
:101A2000BB0F11F460FF1BC06F5F7F4F8F4F9F4F45
:101A300016C0882311F096E911C0772321F09EE8A3
:101A4000872F762F05C0662371F096E8862F70E009
:101A500060E02AF09A95660F771F881FDAF7880FE3
:101A60009695879597F9089597F99F6780E870E0B4
:101A700060E008959FEF80EC089500240A94161604
:101A8000170618060906089500240A94121613066C
:101A9000140605060895092E0394000C11F48823FA
:101AA00052F0BB0F40F4BF2B11F460FF04C06F5F16
:101AB0007F4F8F4F9F4F089557FD9058440F551FEC
:101AC00059F05F3F71F04795880F97FB991F61F0C0
:101AD0009F3F79F087950895121613061406551F37
:101AE000F2CF4695F1DF08C0161617061806991FA3
:101AF000F1CF86957105610508940895E894BB2798
:101B000066277727CB0197F908950E94980D0C94CA
:101B10004B0D0E943D0D38F00E94440D20F095239E
:101B200011F00C94340D0C943A0D11240C947F0D8B
:101B30000E945C0D70F3959FC1F3950F50E0551F07
:101B4000629FF001729FBB27F00DB11D639FAA2712
:101B5000F00DB11DAA1F649F6627B00DA11D661F61
:101B6000829F2227B00DA11D621F739FB00DA11D82
:101B7000621F839FA00D611D221F749F3327A00D3C
:101B8000611D231F849F600D211D822F762F6A2FD8
:101B900011249F5750409AF0F1F088234AF0EE0F3D
:101BA000FF1FBB1F661F771F881F91505040A9F76A
:101BB0009E3F510580F00C94340D0C947F0D5F3FD7
:101BC000E4F3983ED4F3869577956795B795F795A6
:101BD000E7959F5FC1F7FE2B880F911D969587951E
:101BE00097F9089519F416F40C943A0D0C94380EE4
:101BF0000E94640DB8F39923C9F3B6F39F57550BB0
:101C000087FF0E94460E0024A0E640EA900180581B
:101C10005695979528F4805C660F771F881F20F0F3
:101C200026173707480730F4621B730B840B2029F3
:101C300031294A2BA69517940794202531254A2748
:101C400058F7660F771F881F20F0261737074807B9
:101C500030F4620B730B840B200D311D411DA095D8
:101C600081F7B901842F9158880F9695879508952B
:101C70009F3F31F0915020F4879577956795B79500
:101C8000880F911D9695879597F90895915050402A
:101C9000660F771F881FD2F70895AA1BBB1B51E15F
:101CA00007C0AA1FBB1FA617B70710F0A61BB70BCC
:101CB000881F991F5A95A9F780959095BC01CD0171
:101CC0000895A1E21A2EAA1BBB1BFD010DC0AA1F7D
:101CD000BB1FEE1FFF1FA217B307E407F50720F095
:101CE000A21BB30BE40BF50B661F771F881F991F10
:101CF0001A9469F760957095809590959B01AC0159
:101D0000BD01CF010895052E97FB1EF400940E949B
:101D10009A0E57FD07D00E94610E07FC03D04EF4C7
:101D20000C949A0E50954095309521953F4F4F4F0A
:101D30005F4F089590958095709561957F4F8F4F77
:101D40009F4F0895EE0FFF1F0590F491E02D099429
:0E1D500081E090E0F8940C94AD0EF894FFCF73
:101D5E00940095009600970000000000DB064806F0
:101D6E0073062207A4068206960600000000DC0712
:101D7E00AC070C088007A407900781070D0A0050D6
:101D8E006C616361206465205265746F726E6F00C2
:00000001FF
