:100000000C9469000C9491000C9491000C94910054
:100010000C9491000C9491000C9491000C9491001C
:100020000C9491000C9491000C9491000C9491000C
:100030000C9491000C9491000C9491000C949100FC
:100040000C943B030C9491000C94AB030C9485032B
:100050000C9491000C9491000C9491000C949100DC
:100060000C94DD030C94910048064F066306760657
:1000700081069906A2060000000023002600290040
:100080000000000800020100000304070000000057
:100090000000000000000000250028002B000000E8
:1000A0000000240027002A000404040404040404BB
:1000B0000202020202020303030303030102040813
:1000C00010204080010204081020010204081020C2
:1000D0000B0511241FBECFEFD8E0DEBFCDBF11E06E
:1000E000A0E0B1E0E0E2FFE002C005900D92AA3787
:1000F000B107D9F722E0AAE7B1E001C01D92A93CFF
:10010000B207E1F710E0C9E6D0E004C02197FE0194
:100110000E948307C836D107C9F70E9444050C9492
:100120008E070C940000CF93DF9390E0FC01E45421
:10013000FF4F2491FC01E855FF4F84918823C1F0C3
:1001400090E0880F991FFC01E256FF4FC591D491B2
:10015000FC01EC56FF4FA591B4919FB7F8948881AC
:10016000E22FE0958E2388838C91E823EC939FBF48
:10017000DF91CF910895833081F028F4813099F098
:100180008230A1F008958730A9F08830B9F084302A
:10019000D1F4809180008F7D03C0809180008F77A3
:1001A00080938000089584B58F7702C084B58F7DD9
:1001B00084BD08958091B0008F7703C08091B00016
:1001C0008F7D8093B0000895CF93DF93282F30E088
:1001D000F901E058FF4F8491F901E454FF4FD491A5
:1001E000F901E855FF4FC491CC2389F081110E9499
:1001F000BB00EC2FF0E0EE0FFF1FEC56FF4FA59178
:10020000B4918FB7F894EC91ED2BEC938FBFDF9105
:10021000CF910895CF93DF93282F30E0F901E05874
:10022000FF4F8491F901E454FF4FD491F901E8554F
:10023000FF4FC491CC2391F081110E94BB00EC2FA1
:10024000F0E0EE0FFF1FEA58FF4FA591B491EC913B
:10025000ED2381E090E021F480E002C080E090E0B6
:10026000DF91CF9108953FB7F89480911C0290914F
:100270001D02A0911E02B0911F0226B5A89B05C0C9
:100280002F3F19F00196A11DB11D3FBFBA2FA92F15
:10029000982F8827820F911DA11DB11DBC01CD0192
:1002A00042E0660F771F881F991F4A95D1F708957E
:1002B000CF92DF92EF92FF920F931F93CF93DF9332
:1002C0006C017A018B01C0E0D0E0CE15DF0589F02A
:1002D000D8016D918D01D601ED91FC910190F081D5
:1002E000E02DC6010995892B11F47E0102C02196EB
:1002F000ECCFC701DF91CF911F910F91FF90EF904D
:10030000DF90CF900895FC01538D448D252F30E070
:10031000842F90E0821B930B541710F0CF96089512
:1003200001970895FC01918D828D981761F0828D5F
:10033000DF01A80FB11D5D968C91928D9F5F9F7319
:10034000928F90E008958FEF9FEF0895FC01918DBB
:10035000828D981731F0828DE80FF11D858D90E028
:1003600008958FEF9FEF0895FC01918D228D892FC5
:1003700090E0805C9F4F821B91098F7399270895AD
:1003800080E292E00E94B40121E0892B09F420E090
:10039000822F0895FC01848DDF01A80FB11DA35A9F
:1003A000BF4F2C91848D90E001968F739927848F95
:1003B000A689B7892C93A089B1898C9180648C938C
:1003C000938D848D981306C00288F389E02D808177
:1003D0008F7D80830895EF92FF920F931F93CF93A9
:1003E000DF93EC0181E0888F9B8D8C8D981305C085
:1003F000E889F989808185FD24C0F62E0B8D10E0F7
:100400000F5F1F4F0F731127E02E8C8DE8120CC069
:100410000FB607FCFACFE889F989808185FFF5CF0F
:10042000CE010E94CA01F1CF8B8DFE01E80FF11DB4
:10043000E35AFF4FF0820B8FEA89FB89808180624B
:1004400007C0EE89FF896083E889F989808180642B
:10045000808381E090E0DF91CF911F910F91FF9019
:10046000EF900895CF93DF93EC01888D8823C9F036
:10047000EA89FB89808185FD05C0A889B9898C91AD
:1004800086FD0FC00FB607FCF5CF808185FFF2CF48
:10049000A889B9898C9185FFEDCFCE010E94CA0150
:1004A000E7CFDF91CF91089580E090E0892B29F08C
:1004B0000E94C00181110C940000089585ED809385
:1004C000BC008091BC0084FDFCCF1092EF01089528
:1004D00040919C01262F30E0240F311D213231053F
:1004E000DCF42091EF012430C9F4FC0180E090E0BD
:1004F000861758F430919C012191DC01A658BE4F1B
:10050000A30FB11D2C930196F3CF80919C01680F2E
:1005100060939C0180E0089581E0089582E0089551
:10052000089581E090E03091C2012091C10132171D
:1005300010F480E090E09195819591090895809163
:10054000C2019091C101891730F48F5F8093C2017D
:1005500080E090E008958FEF9FEF08958091C101B2
:1005600090E02091C201821B91090895CF92DF9201
:10057000EF92FF920F931F93CF93DF937C01262F6F
:10058000972F8A018091F001882391F0C62FD72FF1
:100590006E01C40ED51ECC15DD0571F06991D70131
:1005A000ED91FC910190F081E02DC7010995F3CF09
:1005B000642F822F0E946802C801DF91CF911F91A2
:1005C0000F91FF90EF90DF90CF900895CF93DF933E
:1005D0001F92CDB7DEB769832091F0012223D1F0BD
:1005E00020911302203240F021E030E0FC013383FF
:1005F000228380E090E015C08091F101E82FF0E0C7
:10060000EE50FE4F998190838F5F8093F10180932C
:10061000130205C061E0CE0101960E94680281E0EC
:1006200090E00F90DF91CF910895089580E090E0E1
:100630000895009769F0FC0101900020E9F73197D7
:10064000AF01481B590BBC0180E292E00C945801A9
:1006500080E090E00895CF93DF930E941903EC01AE
:1006600084E291E00E9419038C0F9D1FDF91CF91CE
:1006700008950E9489071F920F920FB60F921124BE
:100680002F933F938F939F93AF93BF9380911802C3
:1006900090911902A0911A02B0911B023091170299
:1006A00023E0230F2D3720F40196A11DB11D05C0B5
:1006B00026E8230F0296A11DB11D209317028093F7
:1006C000180290931902A0931A02B0931B02809112
:1006D0001C0290911D02A0911E02B0911F02019672
:1006E000A11DB11D80931C0290931D02A0931E02B8
:1006F000B0931F02BF91AF919F918F913F912F9126
:100700000F900FBE0F901F9018951F920F920FB66B
:100710000F9211242F933F934F935F936F937F9387
:100720008F939F93AF93BF93EF93FF9380E292E0F9
:100730000E94CA01FF91EF91BF91AF919F918F915C
:100740007F916F915F914F913F912F910F900FBECD
:100750000F901F9018951F920F920FB60F921124B1
:100760002F938F939F93EF93FF93E0913002F0913B
:1007700031028081E0913602F091370282FD12C091
:100780009081809139028F5F8F7320913A02821796
:1007900051F0E0913902F0E0E05EFD4F958F8093DB
:1007A000390201C08081FF91EF919F918F912F912C
:1007B0000F900FBE0F901F9018951F920F920FB6BB
:1007C0000F9211242F933F934F935F936F937F93D7
:1007D0008F939F93AF93BF93EF93FF938091B90053
:1007E000887F803609F49CC068F5883209F45BC0C4
:1007F00090F4803109F454C038F4882309F4F6C029
:10080000883009F44DC0F6C0883109F44CC08032FC
:1008100009F45DC0EFC0803409F468C048F4803347
:1008200009F455C0883309F0E5C08093ED01D8C0C4
:10083000803509F44FC0883509F45DC0883409F06B
:10084000D9C0D6C0883909F4C7C0A8F4883709F4DC
:1008500067C038F4883609F463C0803709F460C093
:10086000C9C0883809F4B8C0803909F45FC080383D
:1008700009F0C0C05BC0803B09F486C038F4803A00
:1008800009F466C0883A09F47FC0B4C0803C09F41A
:10089000A7C0883C09F4A4C0883B09F48AC0AAC058
:1008A0008091CA0110C09091EC018091EB019817E2
:1008B00070F5E091EC0181E08E0F8093EC01F0E0A7
:1008C000E553FE4F80818093BB0085EC86C080930A
:1008D000ED018EC0E091EC0181E08E0F8093EC0180
:1008E0008091BB00F0E0E553FE4F80839091EC01D6
:1008F0008091EB016EC0E091EC0181E08E0F80935E
:10090000EC018091BB00F0E0E553FE4F80838091C5
:10091000EE0181116DC081E08093C90184EA61C05C
:1009200083E08093EF011092C001CFCF8091C0018E
:10093000803208F051C0E091C00181E08E0F8093B9
:10094000C0018091BB00F0E0E056FE4F8083BDCF38
:1009500085EC8093BC001092EF018091C001803241
:1009600030F4E091C001F0E0E056FE4F108260915B
:10097000C00170E0E0919E01F0919F0180EA91E05A
:1009800009951092C00136C084E08093EF01109267
:100990009D0110929C01E0919A01F0919B010995B3
:1009A00080919C01811105C081E080939C0110928F
:1009B0007A01E0919D0181E08E0F80939D01F0E02E
:1009C000E658FE4F80818093BB0090919D018091FD
:1009D0009C01981708F479CF85E88093BC000AC081
:1009E00085EC8093BC001092EF0104C01092ED01E1
:1009F0000E945E02FF91EF91BF91AF919F918F9105
:100A00007F916F915F914F913F912F910F900FBE0A
:100A10000F901F901895E0E2F2E01382128288EEA8
:100A200093E0A0E0B0E084839583A683B78324E0BD
:100A300031E03183208325EC30E03587248724ECB6
:100A400030E03787268720EC30E0318B208B21EC9B
:100A500030E0338B228B22EC30E0358B248B26EC7C
:100A600030E0378B268B118E128E138E148EEDEBA9
:100A7000F2E01382128284839583A683B78386E192
:100A800091E0918380830895CF93DF93CDB7DEB754
:100A9000A1970FB6F894DEBF0FBECDBF789484B592
:100AA000826084BD84B5816084BD85B5826085BD6A
:100AB00085B5816085BD80916E00816080936E00F8
:100AC00010928100809181008260809381008091EA
:100AD000810081608093810080918000816080939B
:100AE00080008091B10084608093B1008091B0005B
:100AF00081608093B00080917A00846080937A0056
:100B000080917A00826080937A0080917A0081607F
:100B100080937A0080917A00806880937A001092A6
:100B2000C1001092C2011092C1011092F101109205
:100B300013021092EF0181E08093EE011092C9013F
:100B400082E10E94E40083E10E94E4008091B90008
:100B50008E7F8093B9008091B9008D7F8093B9001A
:100B600088E48093B80085E48093BC00E091300273
:100B7000F091310282E08083E0912C02F0912D020D
:100B80001082E0912E02F0912F028FEC8083109260
:100B90003802E0913402F091350286E08083E091E2
:100BA0003202F0913302808180618083E0913202D1
:100BB000F0913302808188608083E0913202F0916D
:100BC0003302808180688083E0913202F0913302A9
:100BD00080818F7D808387E00E94930088E00E945F
:100BE000930089E00E94930084E00E94930083E0D8
:100BF0000E94930082E00E94930011E095E0292E6C
:100C0000312C2AE0422E512C612C712C87E00E945D
:100C10000A0121E0892B09F420E02093C80188E033
:100C20000E940A0121E0892B09F420E02093C701EA
:100C300089E00E940A0121E0892B09F420E0209339
:100C4000C60184E00E940A0121E0892B09F420E01A
:100C50002093C40183E00E940A0121E0892B09F45A
:100C600020E02093C30182E00E940A0121E0892B49
:100C700009F420E02093C501E0911502F0911602DD
:100C8000E730F10508F065C0EC5CFF4F0C9483077A
:100C900087E291E00E942B0321E030E00DC180E368
:100CA00091E00E942B038091C801882319F083E012
:100CB00090E03AC08091C7018111FCC08091C601CB
:100CC0008111F8C04EC089E391E00E942B0380910E
:100CD000C60181279091C701981708F042C0E1E052
:100CE000F0E0F0931602E09315023BC082E491E03D
:100CF0000E942B038091C501882389F324E030E012
:100D0000DBC08BE491E00E942B038091C701882314
:100D100029F0309216022092150223C08091C6015C
:100D20008823F9F086E090E09093160280931502F4
:100D300018C084E591E00E942B038091C4018823B0
:100D400081F00BC08DE591E00E942B038091C301DF
:100D5000F6CF86E691E00E942B03109216021092C5
:100D60001502209115022093140230E040E050E07B
:100D700019A2FE01B1967F01CA01B901A301920136
:100D80000E946107605DF70162937F0121153105C3
:100D90004105510589F7CF010E94190384E291E0D2
:100DA0000E9419031093F00188E0809312021092C0
:100DB000F10110921302609114028DEB92E00E94F7
:100DC000E60280911302813208F045C09091EF0154
:100DD0009111FCCF92E09093EF011093EE019FEF01
:100DE0009093ED011092EC018093EB01A2EFB1E042
:100DF000EBECF1E09E2F2BEC31E0921B981718F4EE
:100E00009D919193F7CF1092CA018091CA018061A0
:100E10008093CA018091C901813061F41092C901A7
:100E20008091CA018093BB008091BC0083FDF8CF04
:100E300085EC01C085EE8093BC008091EF0182308B
:100E4000E1F38091ED018F3F31F08091ED0180322F
:100E500011F08091ED011092F101109213021092A5
:100E6000F0010E9433014B015C018AE0C82ED12CB5
:100E7000E12CF12C0E943301DC01CB018819990986
:100E8000AA09BB09883E9340A105B10558F031E09D
:100E9000C31AD108E108F10888EE880E83E0981E95
:100EA000A11CB11CC114D104E104F10419F70E9482
:100EB0005402ACCE22E030E03093160220931502AB
:100EC00050CFA1E21A2EAA1BBB1BFD010DC0AA1F09
:100ED000BB1FEE1FFF1FA217B307E407F50720F0A3
:100EE000A21BB30BE40BF50B661F771F881F991F1E
:100EF0001A9469F760957095809590959B01AC0167
:100F0000BD01CF010895EE0FFF1F0590F491E02D74
:100F1000099481E090E0F8940C948E07F894FFCF48
:100F200000000000EB01580183013202B40192017C
:100F3000A60100000000E602B60216039002AE020F
:100F40009F0291020D0A0045737461646F203000A6
:100F500045737461646F20310045737461646F2060
:100F6000320045737461646F2033004573746164AB
:100F70006F20340045737461646F203500457374CD
:100F800061646F20360045737461646F20706F7206
:0A0F90002064656661756C74000052
:00000001FF
