:100000000C9458000C9480000C9480000C94800098
:100010000C9480000C9480000C9480000C94800060
:100020000C9480000C9480000C9480000C94800050
:100030000C9480000C9480000C9480000C94800040
:100040000C94CD020C9480000C943D030C94170387
:100050000C9480000C9480000C9480000C94800020
:100060000C946F030C948000000000002500280011
:100070002B00040404040404040402020202020229
:10008000030303030303010204081020408001025C
:1000900004081020010204081020000000080002DB
:1000A00001000003040700000000000000009D04A0
:1000B00011241FBECFEFD8E0DEBFCDBF11E0A0E01E
:1000C000B1E0E4E9FCE002C005900D92A432B10772
:1000D000D9F722E0A4E2B1E001C01D92AA36B2072E
:1000E000E1F710E0C8E5D0E004C02197FE010E94CE
:1000F0003D06C735D107C9F70E94D6040C944806BF
:100100000C94000090E0FC01E656FF4F2491FC01A6
:10011000EA57FF4F3491FC01EE58FF4FE491EE2374
:10012000B1F1222339F1233091F038F42130A9F0D4
:10013000223001F584B58F7D12C0273091F0283030
:10014000A1F02430B9F4809180008F7D03C08091AC
:1001500080008F77809380000DC084B58F7784BD39
:1001600009C08091B0008F7703C08091B0008F7D6F
:100170008093B000F0E0EE0FFF1FE859FF4FA5910C
:10018000B4918FB7F894EC913E2B3C938FBF0895B8
:100190003FB7F8948091BD019091BE01A091BF013D
:1001A000B091C00126B5A89B05C02F3F19F001965C
:1001B000A11DB11D3FBFBA2FA92F982F8827820FED
:1001C000911DA11DB11DBC01CD0142E0660F771F3D
:1001D000881F991F4A95D1F70895CF92DF92EF9229
:1001E000FF920F931F93CF93DF936C017A018B01E2
:1001F000C0E0D0E0CE15DF0589F0D8016D918D010A
:10020000D601ED91FC910190F081E02DC601099598
:10021000892B11F47E0102C02196ECCFC701DF913A
:10022000CF911F910F91FF90EF90DF90CF900895A5
:100230008091B50190E02091B401821B910908954D
:10024000FC01538D448D252F30E0842F90E0821BDC
:10025000930B541710F0CF96089501970895FC0161
:10026000918D828D981761F0828DDF01A80FB11DED
:100270005D968C91928D9F5F9F73928F90E0089511
:100280008FEF9FEF0895FC01918D828D981731F0CB
:10029000828DE80FF11D858D90E008958FEF9FEF1F
:1002A0000895FC01918D228D892F90E0805C9F4FF5
:1002B000821B91098F739927089581EC91E00E9428
:1002C000510121E0892B09F420E0822F0895FC01DF
:1002D000848DDF01A80FB11DA35ABF4F2C91848DCF
:1002E00090E001968F739927848FA689B7892C9304
:1002F000A089B1898C9180648C93938D848D98139F
:1003000006C00288F389E02D80818F7D8083089567
:10031000EF92FF920F931F93CF93DF93EC0181E055
:10032000888F9B8D8C8D981305C0E889F989808111
:1003300085FD24C0F62E0B8D10E00F5F1F4F0F734D
:100340001127E02E8C8DE8120CC00FB607FCFACFF7
:10035000E889F989808185FFF5CFCE010E94670188
:10036000F1CF8B8DFE01E80FF11DE35AFF4FF082B4
:100370000B8FEA89FB898081806207C0EE89FF8943
:100380006083E889F98980818064808381E090E0DE
:10039000DF91CF911F910F91FF90EF900895CF9330
:1003A000DF93EC01888D8823C9F0EA89FB8980817D
:1003B00085FD05C0A889B9898C9186FD0FC00FB64F
:1003C00007FCF5CF808185FFF2CFA889B9898C9190
:1003D00085FFEDCFCE010E946701E7CFDF91CF917E
:1003E000089580E090E0892B29F00E945D01811141
:1003F0000C940000089585ED8093BC008091BC00B2
:1004000084FDFCCF10929301089540914601262F60
:1004100030E0240F311D21323105DCF420919301AD
:100420002430C9F4FC0180E090E0861758F4309144
:1004300046012191DC01AC5DBE4FA30FB11D2C9391
:100440000196F3CF80914601680F6093460180E0EA
:10045000089581E0089582E008950895E091B4013F
:100460008091B501E81730F4F0E0EC56FE4F808142
:1004700090E008958FEF9FEF08959091B4018091DF
:10048000B501981750F4E92FF0E0EC56FE4F2081AB
:1004900030E09F5F9093B40102C02FEF3FEFC9019E
:1004A0000895CF93DF9300D0CDB7DEB7CB01642F93
:1004B00049835A830E9405024981842F5A81952FCE
:1004C0000F900F90DF91CF910895CF93DF931F92FC
:1004D000CDB7DEB7698361E0CE0101960E940502C7
:1004E00081E090E00F90DF91CF910895089580E032
:1004F00090E008958F929F92AF92BF920F931F93B7
:10050000CF93DF93CDB7DEB7A1970FB6F894DEBFD8
:100510000FBECDBF19A2423008F44AE08E010F5D34
:100520001F4F842E912CA12CB12CA50194010E9467
:100530001B06E62FB901CA0101501109EA3014F473
:10054000E05D01C0E95CD801EC93232B242B252B23
:1005500061F70115110571F0F80101900020E9F72C
:100560003197AF01401B510BB80181EC91E00E9423
:10057000ED0002C080E090E0A1960FB6F894DEBFD7
:100580000FBECDBFDF91CF911F910F91BF90AF9064
:100590009F908F9008950E9443061F920F920FB66E
:1005A0000F9211242F933F938F939F93AF93BF93F9
:1005B0008091B9019091BA01A091BB01B091BC01A9
:1005C0003091B80123E0230F2D3720F40196A11DAF
:1005D000B11D05C026E8230F0296A11DB11D209371
:1005E000B8018093B9019093BA01A093BB01B09375
:1005F000BC018091BD019091BE01A091BF01B0915D
:10060000C0010196A11DB11D8093BD019093BE0153
:10061000A093BF01B093C001BF91AF919F918F9103
:100620003F912F910F900FBE0F901F9018951F9222
:100630000F920FB60F9211242F933F934F935F9316
:100640006F937F938F939F93AF93BF93EF93FF939A
:1006500081EC91E00E946701FF91EF91BF91AF9112
:100660009F918F917F916F915F914F913F912F91CA
:100670000F900FBE0F901F9018951F920F920FB6FC
:100680000F9211242F938F939F93EF93FF93E091F9
:10069000D101F091D2018081E091D701F091D80190
:1006A00082FD12C090818091DA018F5F8F7320915B
:1006B000DB01821751F0E091DA01F0E0EF53FE4FD9
:1006C000958F8093DA0101C08081FF91EF919F9116
:1006D0008F912F910F900FBE0F901F9018951F9222
:1006E0000F920FB60F9211242F933F934F935F9366
:1006F0006F937F938F939F93AF93BF93EF93FF93EA
:100700008091B900887F803609F49CC068F58832F2
:1007100009F45BC090F4803109F454C038F48823A4
:1007200009F4F6C0883009F44DC0F6C0883109F4E8
:100730004CC0803209F45DC0EFC0803409F468C059
:1007400048F4803309F455C0883309F0E5C080933C
:100750009101D8C0803509F44FC0883509F45DC0D7
:10076000883409F0D9C0D6C0883909F4C7C0A8F4C4
:10077000883709F467C038F4883609F463C08037D5
:1007800009F460C0C9C0883809F4B8C0803909F4D8
:100790005FC0803809F0C0C05BC0803B09F486C0F0
:1007A00038F4803A09F466C0883A09F47FC0B4C0CE
:1007B000803C09F4A7C0883C09F4A4C0883B09F434
:1007C0008AC0AAC080918E0110C090919001809142
:1007D0008F01981770F5E091900181E08E0F809362
:1007E0009001F0E0E359FE4F80818093BB0085ECDF
:1007F00086C0809391018EC0E091900181E08E0FC0
:10080000809390018091BB00F0E0E359FE4F80831C
:100810009091900180918F016EC0E091900181E0F4
:100820008E0F809390018091BB00F0E0E359FE4F62
:1008300080838091920181116DC081E080938D0150
:1008400084EA61C083E08093930110926A01CFCF64
:1008500080916A01803208F051C0E0916A0181E024
:100860008E0F80936A018091BB00F0E0E65BFE4F43
:100870008083BDCF85EC8093BC0010929301809162
:100880006A01803230F4E0916A01F0E0E65BFE4FED
:10089000108260916A0170E0E0914801F091490195
:1008A0008AE491E0099510926A0136C084E0809351
:1008B00093011092470110924601E0914401F0919A
:1008C0004501099580914601811105C081E0809321
:1008D000460110922401E091470181E08E0F809340
:1008E0004701F0E0EC5DFE4F80818093BB0090916A
:1008F000470180914601981708F479CF85E88093E5
:10090000BC000AC085EC8093BC001092930104C027
:10091000109291010E94FB01FF91EF91BF91AF9165
:100920009F918F917F916F915F914F913F912F9107
:100930000F900FBE0F901F901895E1ECF1E013821D
:10094000128288EE93E0A0E0B0E084839583A683D2
:10095000B78324E031E03183208325EC30E0358714
:10096000248724EC30E03787268720EC30E0318B79
:10097000208B21EC30E0338B228B22EC30E0358B66
:10098000248B26EC30E0378B268B118E128E138E43
:10099000148EEEE5F2E01382128284839583A6839F
:1009A000B78386E191E0918380830895789484B53C
:1009B000826084BD84B5816084BD85B5826085BD5B
:1009C00085B5816085BD80916E00816080936E00E9
:1009D00010928100809181008260809381008091DB
:1009E000810081608093810080918000816080938C
:1009F00080008091B10084608093B1008091B0004C
:100A000081608093B00080917A00846080937A0046
:100A100080917A00826080937A0080917A00816070
:100A200080937A0080917A00806880937A00109297
:100A3000C1001092B4011092B50110926C01109295
:100A40006B011092930181E08093920110928D01CD
:100A500082E10E94820083E10E9482008091B900BD
:100A60008E7F8093B9008091B9008D7F8093B9000B
:100A700088E48093B80085E48093BC00E091D101C4
:100A8000F091D20182E08083E091CD01F091CE011E
:100A90001082E091CF01F091D0018FEC8083109211
:100AA000D901E091D501F091D60186E08083E091F3
:100AB000D301F091D401808180618083E091D301E2
:100AC000F091D401808188608083E091D301F0911E
:100AD000D401808180688083E091D301F091D401BA
:100AE00080818F7D808311E00FEF95EEB92E25EC8C
:100AF000A22EC4E9D1E0809193018111FCCF109323
:100B00009301109392010093910110929001109221
:100B10008F0110938E0180918E01826080938E01EF
:100B200080918D01813069F410928D0180918E0148
:100B30008093BB008091BC0083FDF8CFA092BC00E5
:100B400002C0B092BC00809193018130E1F38091AA
:100B50009001811103C08091900101C081E0ADE658
:100B6000B1E0E4E9F1E09E2F9C1B981718F49D91E9
:100B70009193F9CF1092B4018093B5019091B50192
:100B80008091B401981709F453C08EE592E00E9459
:100B90003D029093B7018093B6016C01990FEE0866
:100BA000FF08F7FE14C0E091C101F091C20101906D
:100BB000F081E02D6DE281EC91E0099566277727C1
:100BC000CB016C197D098E099F094AE003C04AE0F8
:100BD000C701B6010E947A020E94C8002B013C01A5
:100BE00084E6C82ED12CE12CF12C0E94C800DC0137
:100BF000CB0184199509A609B709883E9340A10540
:100C0000B10580F081E0C81AD108E108F10828EEAA
:100C1000420E23E0521E611C711CC114D104E10478
:100C2000F10419F7C114D104E104F104F1F6A6CFDF
:100C30000E94F10160CFA1E21A2EAA1BBB1BFD018D
:100C40000DC0AA1FBB1FEE1FFF1FA217B307E407AB
:100C5000F50720F0A21BB30BE40BF50B661F771F03
:100C6000881F991F1A9469F76095709580959095E3
:100C70009B01AC01BD01CF010895EE0FFF1F059050
:100C8000F491E02D099481E090E0F8940C944806EA
:040C9000F894FFCF06
:100C9400000000008801ED002001CF0151012F0167
:100CA4004301000000006502510277022D02180181
:040CB4003D022E02CD
:00000001FF
